:020000040800F2
:10000000C01800206D1E00086D2500087925000825
:1000100085250008912500089D25000800000000A6
:10002000000000000000000000000000A9250008FA
:10003000B525000800000000C12500083D25000886
:10004000C91E0008C91E0008C91E0008C91E0008F4
:10005000C91E0008C91E0008C91E0008C91E0008E4
:10006000C91E0008C91E0008C91E0008C91E0008D4
:10007000C91E0008C91E0008C91E0008C91E0008C4
:10008000C91E0008C91E0008C91E0008C91E0008B4
:10009000C91E0008C91E0008C91E0008C91E0008A4
:1000A000C91E0008C91E0008C91E0008C91E000894
:1000B000C91E0008C91E0008C91E0008C91E000884
:1000C000C91E0008C91E0008C91E0008C91E000874
:1000D000C91E0008C91E0008C91E0008C91E000864
:1000E000C91E0008C91E0008DD250008C91E000839
:1000F000C91E0008C91E0008C91E0008C91E000844
:10010000C91E0008C91E0008C91E0008C91E000833
:10011000C91E0008C91E0008C91E0008C91E000823
:10012000C91E0008C91E0008C91E0008C91E000813
:10013000C91E0008C91E0008C91E0008C91E000803
:10014000C91E0008C91E0008C91E0008CD250008E8
:10015000C91E0008C91E0008C91E0008C91E0008E3
:10016000C91E0008C91E0008C91E0008C91E0008D3
:10017000C91E0008C91E0008C91E0008C91E0008C3
:10018000C91E0008C91E000880B588B000AF78609D
:1001900013460A46FA70BB700123FB6102F086FE2B
:1001A00002F0B0FEBB78002B3ED0012B6DD100F0E9
:1001B00049F9FB78002B22D0012B31D152483A214A
:1001C000002200F087F95048312100F0C7F94E486D
:1001D000082100F0C3F94C4800F014FA4A483A21CB
:1001E000002200F077F948482D2100F0B7F9464881
:1001F000082100F0B3F9444800F004FA13E0424843
:100200003A21002200F066F93F48202100F0A6F9CB
:100210003D48472100F0A2F93B4800F0F3F902E025
:100220000023FB6133E032E000F076F8FB78002B2E
:100230001DD0012B25D10823FB7307F10F031846AE
:100240003121012200F01CFA0023FB7307F10F0398
:1002500018462D21012200F013FA0823FB7307F141
:100260000F0318462D21012200F00AFA0CE0472363
:10027000FB7307F10F0318462021012200F000FA5A
:1002800002E00023FB6102E001E00023FB61FB7858
:10029000002B07D0012B0BD119A3D3E90023C7E909
:1002A00004230AE04FF00002184BC7E9042304E0DE
:1002B0004FF00002164BC7E90423FB69002B0DD158
:1002C0007B6800221A60043300221A600433002283
:1002D0001A60043300221A6004330DE07B680122A7
:1002E0001A607B68FA781A717B68BA785A717968F3
:1002F000D7E90423C1E9022378682037BD4680BDD1
:100300003333333333331140005400400000314065
:100310000000F03FAFF3008080B58AB000AF082046
:10032000012102F01FFA4FF470433B62012387F86A
:100330002430002387F82630032387F82530002354
:1003400087F8273007F120033A48194602F072FB7C
:100350004FF48050012102F05FFA0120012102F0E8
:1003600001FA1020012102F0FDF933480521052290
:1003700002F01CFC30480621052202F017FC2E4832
:100380000721052202F012FC02233B770023BB77F2
:100390000223FB7702237B772023BB6107F118033D
:1003A0002548194602F046FB8023BB6107F118037C
:1003B0002148194602F03EFB4023BB6107F11803B8
:1003C0001D48194602F036FB1C4804F047FB002389
:1003D000BB8000233B8102237B810123BB814FF43F
:1003E0000073FB8138233B8200237B820723BB827F
:1003F0004FF48273FB803B1D1048194604F068FBE4
:100400000E48012104F0A8FB8023BB6101233B7748
:100410000023BB7702237B7707F1180308481946AE
:1004200002F008FB0648802102F092FB2837BD4607
:1004300080BD00BF000C02400000024000300140BF
:100440000010024080B586B000AF4FF400100121CB
:1004500002F0C4F90220012102F084F94FF4C073C4
:100460003B6102233B7502237B750123BB7501238E
:10047000FB7507F110031448194602F0DBFA124825
:100480000821042202F092FB0F480721042202F007
:100490008DFB0E4B3B600023BB804BF6FF73FB8054
:1004A00000233B8100237B814FF48043BB813B468B
:1004B0000748194604F0A8FB0548012104F066FC32
:1004C0001837BD4680BD00BF00040240A086010071
:1004D0000054004080B582B000AF786013460A46F1
:1004E000FA70BB7000BF78684FF4003104F03AFD39
:1004F0000346002BF7D17868012104F067FC00BFA8
:100500007868134904F0FEFC0346002BF8D0FA7813
:10051000BB78786811461A4604F098FCBB78002B2B
:1005200008D100BF78680B4904F0ECFC0346002BAF
:10053000F8D00AE0BB78012B07D100BF78680649E4
:1005400004F0E0FC0346002BF8D00837BD4680BD20
:1005500001000300820007000200030080B582B0A2
:1005600000AF78600B46FB70FB787868194604F0A2
:10057000ABFC00BF7868044904F0C4FC0346002BC0
:10058000F8D00837BD4680BD8000070080B584B034
:1005900000AF78607868012104F076FC00BF7868CD
:1005A000084904F0AFFC0346002BF8D0786804F04B
:1005B0009BFC0346FB73FB7B5BB218461037BD46C2
:1005C00080BD00BF4000030080B584B000AF7860FC
:1005D0007868002104F058FC00BF7868084904F0EE
:1005E00091FC0346002BF8D0786804F07DFC0346AC
:1005F000FB73FB7B5BB218461037BD4680BD00BF66
:100600004000030080B582B000AF786078680121B7
:1006100004F0FCFB00BF7868044904F073FC034657
:10062000002BF8D00837BD4680BD00BF840007000E
:1006300080B584B000AF0346FB7110483A21002218
:10064000FFF748FFFB790D481946FFF787FF0B4876
:10065000FFF7D8FF09483A210122FFF73BFF07487F
:10066000FFF7B2FF0346FB730448012104F0CEFB01
:10067000FB7B5BB218461037BD4680BD005400407E
:1006800080B582B000AF786013460A46FA703B80AE
:100690003B88012B03D9FB7843F04003FB700F48E4
:1006A000802102F063FAFB78184600F019F80AE09E
:1006B0007B681B78184600F013F83B88013B3B80B1
:1006C0007B6801337B603B88002BF1D1034880219C
:1006D00002F03EFA0837BD4680BD00BF0010024060
:1006E00080B582B000AF0346FB711F4B4FF48052C0
:1006F0001A600BE01C4B1B68591E1B4A1160002B33
:1007000004D100F06BF80346DBB229E01748022160
:1007100004F05EFA0346002BECD0FB799BB2134841
:10072000194604F047FA104B4FF480521A600BE060
:100730000D4B1B68591E0C4A1160002B04D100F0B0
:100740004DF80346DBB20BE00848012104F040FA03
:100750000346002BECD0054804F01EFA0346DBB23A
:1007600018460837BD4680BD00000020003001401B
:1007700080B582B000AF786013460A46FA703B80BD
:100780003B88012B04D9FB7863F03F03FB7003E047
:10079000FB7863F07F03FB700F48802102F0E6F9DD
:1007A000FB781846FFF79CFF0CE00020FFF798FF4E
:1007B00003461A467B681A703B88013B3B807B6886
:1007C00001337B603B88002BEFD10348802102F08E
:1007D000BFF90837BD4680BD0010024080B400AFAD
:1007E000FEE700BF82B080B588B000AF786007F147
:1007F000280181E80C00BB6A002B0CD17B68002229
:100800001A807B6800225A807B6800229A807B686D
:1008100000229A71CCE000233B8300237B830023DA
:10082000BB830123BB7797F82C30002B7CD0012BA6
:1008300040F0B78097F82D30002B51D0012B00D01D
:10084000AFE05F483A210022FFF744FE5C483221C6
:10085000FFF784FE5A48FFF7D5FE59483A21012296
:10086000FFF738FE5648FFF791FE03463B745448A5
:10087000FFF78CFE03467B745148FFF787FE034663
:10088000BB744F48FFF782FE0346FB744C48FFF7EA
:100890007DFE03463B754A48FFF796FE03467B758F
:1008A0007B7C5BB21B029AB23B7CDBB213439BB2F4
:1008B0003B83FB7C5BB21B029AB2BB7CDBB2134373
:1008C0009BB27B837B7D5BB21B029AB23B7DDBB22A
:1008D00013439BB2BB833A48012104F097FA22E00C
:1008E00007F11003184632210622FFF741FF7B7CF7
:1008F0005BB21B029AB23B7CDBB213439BB23B83DD
:10090000FB7C5BB21B029AB2BB7CDBB213439BB293
:100910007B837B7D5BB21B029AB23B7DDBB21343D0
:100920009BB2BB8300BF3CE097F82D30002B15D065
:10093000012B00D034E02920FFF77AFE03469BB25A
:100940003B832B20FFF774FE03469BB27B832D2055
:10095000FFF76EFE03469BB2BB8321E007F10F0356
:10096000184629210122FFF703FFFB7B5BB29BB2F4
:100970003B8307F10F0318462B210122FFF7F8FEF6
:10098000FB7B5BB29BB27B8307F10F0318462D21E3
:100990000122FFF7EDFEFB7B5BB29BB2BB8300BF86
:1009A00000BF7B681A4607F1180303CB1060516043
:1009B00078682037BD46BDE8804002B0704700BF70
:1009C0000054004082B0B0B58EB002AF786007F13D
:1009D000400181E80C0007F128046B4607F148024A
:1009E00092E8030083E8030007F1400191E80C005E
:1009F0002046FFF7F7FE97F82E30002B18D17968C4
:100A00004FF000024FF00003C1E9002379684FF076
:100A100000024FF00003C1E9022379684FF00002A1
:100A20004FF00003C1E904237B6800221A764EE0F0
:100A30003B8D1BB2184604F045FFD7E9122304F0A2
:100A4000A7FF02460B46104619464FF00002234B03
:100A500005F0C8F802460B46C7E902237B8D1BB29E
:100A6000184604F02FFFD7E9122304F091FF024645
:100A70000B46104619464FF00002184B05F0B2F82D
:100A800002460B46C7E90423BB8D1BB2184604F08F
:100A900019FFD7E9122304F07BFF02460B461046EC
:100AA00019464FF000020D4B05F09CF802460B462C
:100AB000C7E90623012387F820307B681C4607F12D
:100AC00008050FCD0FC495E80F0084E80F00786883
:100AD0003037BD46BDE8B04002B0704700408F409F
:100AE00080B485B000AF78600023FB607B68DB6872
:100AF0004FF0FF325A607B68DB684FF0FF325A617B
:100B0000FB7B43F08003FB737B7B43F008037B7329
:100B10007B68DB68FA689A611437BD465DF8047B30
:100B2000704700BF80B586B000AF78600023FB74CB
:100B300000237B610023FB60032002F049FB7B68FC
:100B4000DB681B69FB607B6901337B617A69174B4A
:100B50009A4201D9002324E0FB68DB0FDBB2002BB3
:100B6000EAD000237B61FB6843F00103FB607B68F4
:100B7000DB68FA681A617B68DB681B69FB607B696C
:100B800001337B617A69094B9A4200D905E0FB6821
:100B900003F00103DBB2012BEDD0032002F018FBC0
:100BA000FB7C18461837BD4680BD00BF400D0300D2
:100BB00080B489B000AFF860B960FA71BB800023DF
:100BC000FB76FB68DB78002B22D100237B610023BE
:100BD000FB61BB880333002B00DA03339B107B617E
:100BE000FB79FA6832339B0013449B683B61002316
:100BF000FB6109E0BB681A683B691A60FB69013355
:100C0000FB61BB680433BB60FA697B699A42F1D32C
:100C1000FB7E18462437BD465DF8047B704700BF55
:100C200080B489B000AFF860B9601346FB80002340
:100C3000FB61FB880333002B00DA03339B10BB619D
:100C4000FB68D3F8D0307B610023FB6109E07B694E
:100C50001A68BB681A60FB690133FB61BB68043327
:100C6000BB60FA69BB699A42F1D3BB681846243766
:100C7000BD465DF8047B704780B487B000AF7860F4
:100C80000B46FB7000233B610023FB737B68002253
:100C9000DA707B6801229A707B6840229A80FB7828
:100CA000012B13D14FF0A0433B617B680122DA7224
:100CB0007B6808221A707B6804225A707B684FF4A4
:100CC000A072DA807B6802221A7211E0FB78002B96
:100CD0000ED1454B3B617B680022DA727B680C22A7
:100CE0001A707B6806225A707B684FF4A062DA8023
:100CF0003A697B68DA603B6903F500631A467B68F2
:100D00001A6100237B611CE07B695A013B69134433
:100D100003F510631A4679687B6904339B000B4422
:100D20009A607B695A013B69134403F530631A46A4
:100D300079687B6914339B000B445A607B690133EB
:100D40007B617B685B781A467B699A42DCD83B6999
:100D500003F580631A467B685A613B6903F5886333
:100D60001A467B68C3F8CC2000237B610FE07B69C7
:100D70005A013B69134403F5A0631A4679687B69FD
:100D800022339B000B449A607B6901337B617B6853
:100D90001B781A467B699A42E9D800237B610FE0F1
:100DA0007B691A033B69134403F580531A4679683B
:100DB0007B6932339B000B449A607B6901337B6112
:100DC0007B681B781A467B699A42E9D83B6903F530
:100DD00060631A467B68C3F80C21FB7B18461C37FE
:100DE000BD465DF8047B70470000044080B588B0C4
:100DF00000AF78600023FB770023BB6100237B6199
:100E00000023FB607B681B7A012B4FD17B68DB687A
:100E10009B6B7B61BB7D6FF30003BB757B685B7A6B
:100E2000002B03D0BB7D43F01003BB757B68DB68F0
:100E30007A699A630023BB617B68DB68DB68BB610E
:100E40003B7E6FF386133B76BB7E6FF38613BB76D8
:100E50003B7E43F010033B763B7E6FF3C3033B7650
:100E60003B7E6FF3C7133B76BB7E6FF34103BB76CC
:100E7000BB7E6FF3C303BB767B68DB68BA69DA605D
:100E80007868FFF74FFE7B68DB78012B40F08280AB
:100E90003B7B052262F344033B733B7B43F020031F
:100EA0003B737B68DB68FA689A6073E07B68DB6899
:100EB000DB68BB613B7E43F040033B767B68DB68CD
:100EC000BA69DA607868FFF72DFE00237B61BB7D8D
:100ED00043F00103BB757B681B7A032B03D1BB7DF9
:100EE00043F00203BB75BB7D43F00403BB75BB7DC0
:100EF00043F00803BB75BB7D43F02003BB757B68E3
:100F00005B7A002B03D0BB7D43F01003BB757B687D
:100F1000DB687A699A63142002F07EF97B68DB68EB
:100F2000DB68BB617B681B7A032B03D1BB7E43F07C
:100F30000103BB767B68DB68BA69DA607B681B7A81
:100F4000032B27D17B68DB681B6B3B61FB7C012299
:100F500062F38303FB74BB7C6FF3C713BB74FB7C2E
:100F600043F01003FB74BB7C2D2262F30603BB74B9
:100F70007B68DB683A691A63C82002F04DF9BB7CD4
:100F800043F08003BB747B68DB683A691A63C8204E
:100F900002F042F97B68DB78012B10D17B68DB68BB
:100FA0009B68FB603B7B052262F344033B733B7B06
:100FB00043F020033B737B68DB68FA689A60FB7F31
:100FC00018462037BD4680BD80B485B000AF78603C
:100FD0000023FB730023BB603B7A43F001033B72A9
:100FE0007B68DB687A68D2689168BA680A439A605D
:100FF000FB7B18461437BD465DF8047B704700BF85
:1010000080B485B000AF78600023FB730023BB6021
:101010003B7A43F001033B727B68DB687A68D268F5
:101020009168BA68D2430A409A60FB7B184614372D
:10103000BD465DF8047B704780B586B000AF786030
:1010400039600023FB7400237B610023FB60FB6895
:1010500043F02003FB603B68DBB203F01F03DAB20E
:10106000FB6862F38A13FB607B68DB68FA681A61CD
:101070007B68DB681B69FB607B6901337B617A6994
:10108000094B9A4200D906E0FB685B0903F00103B3
:10109000DBB2012BECD0032002F09AF8FB7C18465F
:1010A0001837BD4680BD00BF400D030080B586B037
:1010B00000AF78600023FB7400237B610023FB609A
:1010C000FB6843F01003FB607B68DB68FA681A6119
:1010D0007B68DB681B69FB607B6901337B617A6934
:1010E000094B9A4200D906E0FB681B0903F0010393
:1010F000DBB2012BECD0032002F06AF8FB7C18462F
:101100001837BD4680BD00BF400D030080B584B0D8
:1011100000AF78600B46FB700023FB737B68DB68D5
:10112000DB68BB60FB7A6FF34513FB72FB7A6FF3EE
:101130008613FB72FB78012B04D1FB7A43F020036A
:10114000FB7206E0FB78002B03D1FB7A43F04003EF
:10115000FB727B68DB68BA68DA60322002F05CF808
:10116000FB7B18461037BD4680BD00BF80B483B0FE
:1011700000AF78607B68DB685B6903F001031846A9
:101180000C37BD465DF8047B704700BF80B582B068
:1011900000AF78607868FFF7E9FF0346012B0CBFCA
:1011A00000230123DBB218460837BD4680BD00BFCF
:1011B00080B485B000AF78600023FB607B68DB689B
:1011C0005B69FB607B68DB689B69FA681340FB60C6
:1011D000FB6818461437BD465DF8047B704700BFB6
:1011E00080B485B000AF78600B46FB707B681B69EC
:1011F0001B68FB60FB7803F00303DAB23B7B62F30E
:1012000001033B737B681B69FA681A601437BD469B
:101210005DF8047B704700BF80B58CB000AF78608C
:10122000002387F82B3000237B6200233B620023DE
:10123000FB610023BB6100237B617B68D3F80C3129
:1012400000221A607B681B691B683B6297F821309B
:101250006FF3C40387F821307B681B693A6A1A6010
:101260007B68DB7A012B40D178680321FFF7B8FF58
:101270007B68DB6880225A62FB8B402262F30F039B
:10128000FB83BB8B802262F30F03BB837B68DB682D
:10129000FA699A62BA8BFB8B13449BB23B837B8BBC
:1012A000802262F30F037B837B68DB68BA69C3F833
:1012B00004213A8B7B8B13449BB23B837B8B6FF374
:1012C0000F037B837B68DB68BA69C3F808213A8B1C
:1012D0007B8B13449BB23B837B8B6FF30F037B832E
:1012E0007B68DB68BA69C3F80C2178681021FFF7C6
:1012F000A3FE7868FFF7DAFE7B681B6900221A619B
:101300007B681B6900225A617B681B694FF0FF32C2
:101310009A617B681B690022DA610023FB623AE074
:101320007A68FB6A04339B0013449B681B687B62EA
:1013300097F82730C3F3C013DBB2002B0ED0002385
:101340007B6297F8273043F0400387F8273097F8FF
:10135000273043F0080387F8273001E000237B6241
:101360007A68FB6A04339B0013449B687A6A1A60AC
:101370007A68FB6A04339B0013449B6800221A615D
:101380007A68FB6A04339B0013449B68FF229A60CF
:10139000FB6A0133FB627B685B781A46FB6A9A4200
:1013A000BED80023FB6235E07A68FB6A14339B00E9
:1013B00013445B681B68FB60FB7BC3F3C013DBB2A9
:1013C000002B0AD00023FB60FB7B43F04003FB7340
:1013D000FB7B43F00803FB7301E00023FB607A68AA
:1013E000FB6A14339B0013445B68FA681A607A68DE
:1013F000FB6A14339B0013445B6800221A617A680D
:10140000FB6A14339B0013445B68FF229A60FB6AFB
:101410000133FB627B685B781A46FB6A9A42C3D849
:1014200000237B617B7D43F001037B757B681B6937
:101430007A68126911697A69D24311407A690A435C
:101440001A617B68DB78012B1BD100233B613B7C5D
:1014500043F001033B743B7C43F002033B743B8A43
:10146000402262F38A033B82BB7C43F00103BB74DE
:101470007B8A402262F349037B827B681B693A695D
:101480001A63786800F006F897F82B301846303762
:10149000BD4680BD80B584B000AF78600023FB738B
:1014A0000023BB607B68DB6800229A617B68DB6895
:1014B0004FF0FF325A617868FFF712FB7B68DB78E8
:1014C000002B03D13B7A43F010033B727B7A43F04D
:1014D00008037B727B7A43F010037B727B7A43F0C4
:1014E00020037B72BB7A43F00403BB72BB7A43F0E8
:1014F0000803BB723B7A43F008033B72BB7A43F0AC
:101500001003BB72BB7A43F02003BB727B68DB68BD
:101510007A68D2689169BA68D2431140BA680A43BE
:101520009A61FB7B18461037BD4680BD80B485B0FC
:1015300000AF78600023FB737B681B699B68BB600E
:101540003B7AC3F34103DBB2022B09D0032B04D057
:10155000012B02D00323FB7305E00223FB7302E09F
:101560000123FB7300BFFB7B18461437BD465DF8B3
:10157000047B704780B487B000AF78600023FB75B0
:101580000023BB607B681B699B683B617B689B6930
:101590001B68FB603B7CC3F34103DBB2022B04D02E
:1015A000BB896FF30A03BB8105E0BB89032262F3A9
:1015B0000A03BB8100BF7B689B69FA681A607B7A6B
:1015C00043F001037B727B681B697A68126951687A
:1015D000BA68D2431140BA680A435A60FB7D184684
:1015E0001C37BD465DF8047B704700BF80B487B0F0
:1015F00000AF786039600023FB740023FB60002398
:10160000BB603B685B78012B0FD13B681B787A6825
:1016100004339B0013449B687B613B681B78012269
:1016200002FA03F39BB23B810EE03B681B787A68B9
:1016300014339B0013445B687B613B681B78012279
:1016400002FA03F39BB27B817B691B68FB607B7BA7
:10165000C3F3C013DBB2002B27D13B689B689BB25E
:10166000C3F30A039AB2BB8962F30A03BB813B68E6
:10167000DB7803F00303DAB2BB7B62F38303BB7353
:101680003B68DB88DBB203F00F03DAB2FB8962F35D
:101690008913FB81FB7B43F01003FB737B7B43F0DF
:1016A00080037B73FA687B691A607B681B697A68C0
:1016B0001269D169BA680A43DA61FB7C18461C37A3
:1016C000BD465DF8047B704780B487B000AF78609A
:1016D00039600023FB740023FB600023BB603B6880
:1016E0005B78012B0FD13B681B787A6804339B0031
:1016F00013449B687B613B681B78012202FA03F369
:101700009BB23B810EE03B681B787A6814339B00E8
:1017100013445B687B613B681B78012202FA03F388
:101720009BB27B817B7B6FF3C7137B73FA687B690A
:101730001A607B681B697A681269D169BA68D243FA
:101740000A40DA61FB7C18461C37BD465DF8047B15
:10175000704700BF80B588B000AF78603960002363
:10176000FB770023BB6100237B6100233B613B6867
:101770005B78012B40F0AB803B681B787A680433C0
:101780009B0013449B681B687B613B681B787A68ED
:1017900004339B0013449B681B693B613B685B6996
:1017A000002B09D13B696FF312033B617B8A012255
:1017B00062F3CC037B8222E03B685B69C3F31202D5
:1017C0003B6962F312033B613B685A693B689B6863
:1017D00013445A1E3B689B68B2FBF3F39BB2C3F3FE
:1017E00009039AB27B8A62F3CC037B823B68DB7885
:1017F000012B04D1FB7C012262F34613FB743B688E
:101800001B787A6804339B0013449B683A691A6119
:101810007B68DB78012B0AD13B681B787A6804333C
:101820009B0013449B683A6812695A6115E03B6853
:10183000DB78012B11D03B685B69002B0DD03B6836
:101840001B78012202FA03F3BB617B681B697A688B
:101850001269516BBA690A435A633B68DB78012B02
:1018600014D17B681B699B68FB60FB68C3F30D2385
:101870009BB203F00103002B04D1FB7D43F0200356
:10188000FB7503E0FB7D43F01003FB75FB7D43F02C
:101890000403FB75FB7D43F08003FB753B681B78FD
:1018A0007A6804339B0013449B687A691A603B682A
:1018B000DB78012B40F088803B68D9683B681A7858
:1018C0003B685B699BB27868FFF772F97CE03B6824
:1018D0001B787A6814339B0013445B681B687B6138
:1018E0003B681B787A6814339B0013445B681B6960
:1018F0003B613B685B69002B0DD13B689B68C3F380
:1019000012023B6962F312033B617B8A012262F39C
:10191000CC037B821FE03B685A693B689B68134499
:101920005A1E3B689B68B2FBF3F39BB2C3F30903F7
:101930009AB27B8A62F3CC037B827B8AC3F3C903AE
:101940009BB23A68926802FB03F3C3F312023B694D
:1019500062F312033B613B681B787A6814339B0087
:1019600013445B683A691A617B68DB78012B09D103
:101970003B681B787A6814339B0013445B683A68B1
:1019800012695A613B68DB78012B0CD13B685B79AB
:10199000002B04D0FB7D43F02003FB7503E0FB7DAF
:1019A00043F01003FB75FB7D43F00403FB75FB7DE7
:1019B00043F08003FB753B681B787A6814339B0007
:1019C00013445B687A691A60FB7F18462037BD466E
:1019D00080BD00BF80B489B000AF7860396000235B
:1019E000FB770023BB6100233B610023BB603B68A6
:1019F0005B78012B6FD17B689B697B617B691B687E
:101A00003B617B691B69BB603B685B69002B09D14B
:101A10003B7A6FF306033B72BB7A012262F3C40385
:101A2000BB7223E03B685A693B689B689A420ED9B7
:101A30003B689A683B685A613B689B68DBB203F07D
:101A40007F03DAB23B7A62F306033B7209E03B683C
:101A50005B69DBB203F07F03DAB23B7A62F3060321
:101A60003B72BB7A012262F3C403BB72BA687B6922
:101A70001A617B68DB78012B09D13B681B787A6897
:101A800004339B0013449B683A6812695A61FB7CDB
:101A900043F00403FB74FB7C43F08003FB743A695E
:101AA0007B691A607B68DB78002B75D13B685B69CA
:101AB000002B71D03B681B78012202FA03F3BA694C
:101AC0001343BB617B681B697A681269516BBA6901
:101AD0000A435A6360E03B681B787A6814339B00C2
:101AE00013445B681B683B613B681B787A6814335E
:101AF0009B0013445B681B69BB603B685B69002B00
:101B00000FD13B689B68DBB203F07F03DAB23B7A0C
:101B100062F306033B72BB7A012262F3C403BB7219
:101B200012E03B689A683B685A613B689B68DBB28D
:101B300003F07F03DAB23B7A62F306033B72BB7AAF
:101B4000012262F3C403BB723B681B787A681433CA
:101B50009B0013445B68BA681A617B68DB78012BD1
:101B600009D13B681B787A6814339B0013445B6887
:101B70003A6812695A61FB7C43F00403FB74FB7CF6
:101B800043F08003FB743B681B787A6814339B0036
:101B900013445B683A691A60FB7F18462437BD46D8
:101BA0005DF8047B704700BF80B487B000AF7860F9
:101BB00039600023FB750023FB603B685B78012BD9
:101BC0001CD13B681B787A6804339B0013449B68E4
:101BD0003B613B691B68FB60FB7BC3F3C013DBB25B
:101BE000002B03D0FB7B43F04003FB73BB7B43F034
:101BF0002003BB73FA683B691A6011E03B681B78ED
:101C00007A6814339B0013445B683B613B691B6833
:101C1000FB60BB7B43F02003BB73FA683B691A602F
:101C2000FB7D18461C37BD465DF8047B704700BF3E
:101C300080B487B000AF786039600023FB74002364
:101C4000FB603B685B78012B08D13B681B787A68A6
:101C500004339B0013449B687B6107E03B681B785F
:101C60007A6814339B0013445B687B617B691B6853
:101C7000FB60BB7B6FF34513BB733B68DB78032BC7
:101C800003D03B68DB78022B03D1FB7B43F01003CE
:101C9000FB73FA687B691A60FB7C18461C37BD46EB
:101CA0005DF8047B704700BF80B485B000AF7860FA
:101CB0007B681B699B69FB607B681B69DB69FA6851
:101CC0001340FB60FB681B0C18461437BD465DF8DB
:101CD000047B704780B485B000AF78600B46FB7022
:101CE000FB787A6814339B0013445B689B68FB6045
:101CF0007B681B695B69FA681340FB60FB681846E8
:101D00001437BD465DF8047B704700BF80B485B0D2
:101D100000AF78607B681B699B69FB607B681B690F
:101D2000DB69FA681340FB60FB689BB21846143706
:101D3000BD465DF8047B704780B487B000AF786023
:101D400000233B61FB7C43F0C003FB74BB7C01229E
:101D500062F3C403BB743B7C182262F306033B743A
:101D60007B685B6D3A691A617B68DB78012B16D161
:101D70000023FB607B685B6D7A6802F5B9625A618B
:101D80007B685B6D1B68FB60FB7B43F08003FB7330
:101D90004FF08023FB607B685B6DFA681A601C372C
:101DA000BD465DF8047B704780B485B000AF7860B5
:101DB0007B689B7A002B1BD07B681B699B68FB6050
:101DC0003B7BC3F30003DBB2012B11D17B6803F52E
:101DD00086731B68BB603B7A6FF341033B723B7AAF
:101DE0006FF300033B727B68D3F80C31BA681A605A
:101DF0001437BD465DF8047B704700BF80B400AF68
:101E0000BD465DF8047B704780B483B000AF0346E5
:101E1000FB71FB79002B02D0012B02D002E000BF46
:101E200000E000BF0C37BD465DF8047B704700BF83
:101E300080B400AFBD465DF8047B704780B400AF4E
:101E4000BD465DF8047B704780B400AFBD465DF8C9
:101E5000047B704780B400AFBD465DF8047B7047DB
:101E600080B400AFBD465DF8047B704780B582B09A
:101E700000AF104B7B60104B3B6007E03B681A1DC6
:101E80003A607A68111D796012681A603A680B4BE3
:101E90009A42F3D30A480B494FF000028842B8BF78
:101EA00040F8042BFFF6FAAF00F05CFA0837BD46A5
:101EB00080BD00BF4C5E00080000002044010020EF
:101EC00044010020C010002080B400AFFEE700BF36
:101ED00080B584B000AFF8607A603B600B46FB725F
:101EE000F86801F005F9F86800F01CF8FB683A683A
:101EF000C3F8E025FB68BA69C3F8E425FB687A6893
:101F0000C3F8E825FB7AF868194603F0DDF8FB68AA
:101F1000D3F8E4351B689847F86801F041F91037A9
:101F2000BD4680BD80B483B000AF78600023184602
:101F30000C37BD465DF8047B704700BF80B584B0A8
:101F400000AF786007F108037868194601F04AFD90
:101F50003B7A03F01F03012B0AD0022B0FD0002B7A
:101F600014D107F108037868194601F065F916E005
:101F700007F108037868194601F0AEF90FE007F1A0
:101F800008037868194601F0DBF908E03B7A23F092
:101F90007F03DBB27868194603F018FA00BF00230C
:101FA00018461037BD4680BD80B584B000AF78605C
:101FB0000B46FB70FB78002B45D17B6803F55C7307
:101FC000FB607B6893F81131032B4FD1FB68DA6912
:101FD000FB689B689A4221D9FB68DA69FB689B68B9
:101FE000D21AFB68DA617B68DB78012B06D1FB68CB
:101FF000DA68FB689B681A44FB68DA60FB68DA6899
:10200000FB689968FB68DB69994238BF0B469BB255
:10201000786811461A4603F0BFFA27E07B68D3F8C8
:10202000E0351B69002B0AD07B6893F81231032B33
:1020300005D17B68D3F8E0351B69786898477868E4
:1020400003F0BEFA12E07B68D3F8E0359B69002B01
:102050000CD07B6893F81231032B07D17B68D3F83F
:10206000E0359B69FA78786811469847002318464E
:102070001037BD4680BD00BF80B584B000AF78602A
:102080000B46FB70FB78002B60D17B6803F58C73EB
:10209000FB607B6893F81131022B6AD1FB68DA6927
:1020A000FB689B689A421CD9FB68DA69FB689B68ED
:1020B000D21AFB68DA617B68DB78012B06D1FB68FA
:1020C000DA68FB689B681A44FB68DA60FB68DA68C8
:1020D000FB68DB699BB2786811461A4603F028FA60
:1020E00047E0FB681B6AFA689268B3FBF2F102FBF7
:1020F00001F29B1A002B14D1FB681A6AFB689B68DB
:102100009A420ED3FB681A6AFB685B6A9A4208D24D
:1021100078680021002203F00BFAFB6800225A6263
:1021200027E07B68D3F8E035DB68002B0AD07B68BA
:1021300093F81231032B05D17B68D3F8E035DB68C7
:1021400078689847786803F053FA12E07B68D3F810
:10215000E0355B69002B0CD07B6893F81231032BC0
:1021600007D17B68D3F8E0355B69FA787868114667
:102170009847002318461037BD4680BD80B582B011
:1021800000AF7860786800214022002303F01CF83B
:10219000786880214022002303F016F87B68012232
:1021A00083F812217B68D3F8E4355B687A6892780B
:1021B00010469847002318460837BD4680BD00BF2B
:1021C00080B582B000AF78607B68D3F8E4351B69D6
:1021D00098477B68032283F81221002318460837AA
:1021E000BD4680BD80B582B000AF78607B680422B8
:1021F00083F812217B68D3F8E435DB689847002325
:1022000018460837BD4680BD80B582B000AF786003
:102210007B68D3F8E035DB69002B05D07B68D3F809
:10222000E035DB6978689847002318460837BD46D3
:1022300080BD00BF80B582B000AF78600B46FB70F8
:102240007B68D3F8E0351B68FA78786811469847C0
:102250007B68D3F8E4359B68984700231846083715
:10226000BD4680BD80B582B000AF78600B46FB7084
:102270007B68D3F8E0355B68FA7878681146984750
:10228000002318460837BD4680BD00BF80B582B028
:1022900000AF78607B68D3F8E0351B6A78689847B0
:1022A000002318460837BD4680BD00BF80B582B008
:1022B00000AF78607B68D3F8E0355B6A7868984750
:1022C000002318460837BD4680BD00BF80B483B0E8
:1022D00000AF03463960FB7197F90730002B0BDA2A
:1022E0000D49FB7903F00F03043B3A68D2B21201A7
:1022F000D2B20B441A7609E0084997F907303A68D8
:10230000D2B21201D2B20B4483F800230C37BD467F
:102310005DF8047B704700BF00ED00E000E100E0E5
:1023200080B582B000AF78607B68B3F1807F01D365
:10233000012311E00A4B7A6822F07F42013A5A6089
:102340004FF0FF300F21FFF7C1FF054B00229A60CD
:10235000034B07221A60002318460837BD4680BD8C
:1023600010E000E0B0B598B002AF00F09FFD00F0C3
:102370007FF807F14803184601210122FDF704FF09
:10238000BB6C002B07D137484FF4804100F0FCFBB9
:102390004FF0FF3362E033484FF4005100F0F4FB9C
:1023A000314B1B68B3F5FA7F04D12E4B4FF400522A
:1023B0005A830BE02C4B1B68B3F57A7F06D12A4B6E
:1023C00000221A60274B4FF400521A8307F12703AB
:1023D000184600F03FFD0346002B35D097F8273014
:1023E000752B31D13C466B4607F1500292E8030051
:1023F00083E8030007F148030CCB2046FEF7E2FA1E
:1024000007F128043D460FCD0FC495E80F0084E87E
:102410000F0007F128031846082100F0A5FC07F17A
:10242000280308331846082100F09EFC07F1280312
:1024300010331846082100F097FC0A4B4FF48052E5
:102440001A830A4B0A221A60084B1B68002B04D11E
:10245000044B4FF480525A83A2E7A1E7184658373D
:10246000BD46B0BD000C0240700100207401002088
:1024700080B584B002AF0820012100F073F94FF459
:1024800070433B6001233B710023BB7101237B71CF
:102490000023FB713B460F48194600F0CBFA0E4B68
:1024A0001A680E4BA3FB02139B091846FFF738FF6F
:1024B0000346002B01D000F01BF8094B009309489C
:1024C0000121094A094BFFF703FD00BF0837BD464C
:1024D00080BD00BF000C0240BC000020D34D621044
:1024E0000400002078010020600000201801002076
:1024F00080B483B000AF0123FB8000233B6000BFAA
:102500003B685A1C3A600B4A9342F9D90A4BFA8845
:10251000120392B25A83FB885B00FB80FB880F2B6F
:1025200001D90123FB80044BFA88120392B21A836B
:10253000E3E700BF1FA10700000C024080B400AF1A
:10254000084B1B685A1C074B1A60074B1B68002B73
:1025500004D0054B1B685A1E034B1A60BD465DF83C
:10256000047B7047700100207401002080B400AF2C
:10257000BD465DF8047B704780B500AFFFF7B8FF3C
:1025800080BD00BF80B500AFFFF7B2FF80BD00BFC8
:1025900080B500AFFFF7ACFF80BD00BF80B500AFD6
:1025A000FFF7A6FF80BD00BF80B400AFBD465DF859
:1025B000047B704780B400AFBD465DF8047B704774
:1025C00080B400AFBD465DF8047B704780B500AFB6
:1025D000014801F0C7FA80BD7801002080B500AF46
:1025E000094B9B7A002B0AD0084B084A126822F04C
:1025F00006021A6000F05AFC0348FFF7D5FB4FF4BF
:10260000802002F0E3FC80BD7801002010ED00E0A6
:1026100080B489B000AF78600023BB6100237B6188
:102620000023FB6102233B610023FB600223BB60AC
:10263000484B9B6803F00C03BB61BB69042B07D0BC
:10264000082B09D0002B3FD17B68434A1A603FE03A
:102650007B68424A1A603BE03E4B5B6803F48003B0
:102660009B0DFB603B4B5B6803F03F03BB60FB686B
:10267000002B0DD0394ABB68B2FBF3F2354B5968D9
:1026800047F6C0730B409B0903FB02F3FB610CE0B0
:10269000314ABB68B2FBF3F22E4B596847F6C07360
:1026A0000B409B0903FB02F3FB612A4B5B6803F4BD
:1026B00040331B0C01335B003B61FA693B69B2FBA1
:1026C000F3F27B681A6003E07B68234A1A6000BF5C
:1026D000204B9B6803F0F003BB61BB691B09BB6126
:1026E0001F4ABB6913441B78DBB27B617B681A68A5
:1026F0007B69DA407B685A60164B9B6803F4E053B1
:10270000BB61BB699B0ABB61154ABB6913441B785B
:10271000DBB27B617B685A687B69DA407B689A60D0
:102720000C4B9B6803F46043BB61BB695B0BBB61F3
:102730000B4ABB6913441B78DBB27B617B685A6828
:102740007B69DA407B68DA602437BD465DF8047B3C
:10275000704700BF003802400024F40000127A00E5
:102760005000002080B483B000AF78600B46FB704F
:10277000FB78002B06D0094B084A116B7A680A4394
:102780001A6306E0054B054A116B7A68D2430A408A
:102790001A630C37BD465DF8047B70470038024071
:1027A00080B483B000AF78600B46FB70FB78002BE1
:1027B00006D0094B084A516B7A680A435A6306E00F
:1027C000054B054A516B7A68D2430A405A630C376D
:1027D000BD465DF8047B70470038024080B483B08A
:1027E00000AF78600B46FB70FB78002B06D0094BDE
:1027F000084A116C7A680A431A6406E0054B054AD8
:10280000116C7A68D2430A401A640C37BD465DF8F1
:10281000047B70470038024080B483B000AF78601A
:102820000B46FB70FB78002B06D0094B084A516C15
:102830007A680A435A6406E0054B054A516C7A6887
:10284000D2430A405A640C37BD465DF8047B70479A
:102850000038024080B483B000AF78600B46FB7054
:10286000FB78002B06D0094B084A116A7A680A43A4
:102870001A6206E0054B054A116A7A68D2430A409B
:102880001A620C37BD465DF8047B70470038024081
:1028900080B483B000AF78600B46FB70FB78002BF0
:1028A00006D0094B084A516A7A680A435A6206E020
:1028B000054B054A516A7A68D2430A405A620C377E
:1028C000BD465DF8047B70470038024080B483B099
:1028D00000AF03463960FB713B6812221A80034B3C
:1028E00018460C37BD465DF8047B70477C0000201D
:1028F00080B483B000AF03463960FB713B680422AB
:102900001A80034B18460C37BD465DF8047B7047B0
:102910009C00002080B582B000AF03463960FB7197
:10292000FB79002B05D1084808493A6801F0C4F842
:1029300004E0074805493A6801F0BEF8034B184621
:102940000837BD4680BD00BFB45D00080008002008
:10295000D85D000880B582B000AF03463960FB71D6
:10296000044805493A6801F0A7F8034B18460837B0
:10297000BD4680BDFC5D00080008002080B582B027
:1029800000AF03463960FB71FB79002B05D1084885
:1029900008493A6801F090F804E0074805493A68A8
:1029A00001F08AF8034B18460837BD4680BD00BFCA
:1029B000105E000800080020205E000880B582B08C
:1029C00000AF03463960FB71FB79002B05D1084845
:1029D00008493A6801F070F804E0054805493A688A
:1029E00001F06AF8034B18460837BD4680BD00BFAA
:1029F000305E00080008002080B582B000AF0346BA
:102A00003960FB71FB79002B05D1084808493A6809
:102A100001F052F804E0054805493A6801F04CF825
:102A2000034B18460837BD4680BD00BF3C5E00081A
:102A30000008002080B487B000AF786039600023C0
:102A40007B6100233B610023FB6000237B6176E018
:102A50007B69012202FA03F33B613B681A683B6918
:102A60001340FB60FA683B699A4265D17B681A683B
:102A70007B695B00032101FA03F3DB431A407B68A7
:102A80001A607B681A683B681B7919467B695B0092
:102A900001FA03F31A437B681A603B681B79012B28
:102AA00003D03B681B79022B2ED17B689A687B6927
:102AB0005B00032101FA03F3DB431A407B689A6051
:102AC0007B689A683B685B7919467B695B0001FA11
:102AD00003F31A437B689A607B685A687B699BB2F0
:102AE000012101FA03F3DB431A407B685A607B68DB
:102AF0005A683B689B7919467B699BB201FA03F3DC
:102B00009BB21A437B685A607B68DA687B699BB228
:102B10005B00032101FA03F3DB431A407B68DA60B0
:102B20007B68DA683B68DB7919467B695B0001FAF0
:102B300003F31A437B68DA607B6901337B617B694D
:102B40000F2B85D91C37BD465DF8047B704700BF4D
:102B500080B483B000AF78600B467B807B687A8856
:102B60001A830C37BD465DF8047B704780B483B090
:102B700000AF78600B467B807B687A885A830C377D
:102B8000BD465DF8047B704780B483B000AF7860C9
:102B90000B467B807B685A697B885A407B685A6108
:102BA0000C37BD465DF8047B704700BF80B485B02C
:102BB00000AF786013460A467A807B700023FB6082
:102BC0000023BB607A787B8803F007039B0002FA3E
:102BD00003F3FB607B88DB089BB21A467B88DB082B
:102BE0009BB219467B68083153F821107B8803F0AB
:102BF00007039B000F2000FA03F3DB4319407B68B7
:102C0000083243F822107B88DB089BB21A467B68A7
:102C1000083253F82220FB681343BB607B88DB0833
:102C20009BB21A467B680832B96843F82210143701
:102C3000BD465DF8047B704780B400AF00231846A2
:102C4000BD465DF8047B704780B400AF0023184692
:102C5000BD465DF8047B704780B485B000AFF86076
:102C6000B9607A60FB68232B74D801A252F823F074
:102C7000552D0008552D0008552D0008552D00082C
:102C8000552D0008552D0008552D0008552D00081C
:102C9000552D0008552D0008552D0008552D00080C
:102CA000552D0008552D0008552D0008552D0008FC
:102CB000552D0008552D0008552D0008552D0008EC
:102CC000552D0008552D0008552D0008552D0008DC
:102CD000552D0008552D0008552D0008552D0008CC
:102CE000552D0008552D0008552D0008552D0008BC
:102CF000552D0008012D0008552D0008552D000800
:102D0000184B1B68DAB2BB681A70BB680133154AEE
:102D10001268120AD2B21A70BB680233114A1268E2
:102D2000120CD2B21A70BB6803330E4A1268120E2C
:102D3000D2B21A70BB6804330A4A12791A70BB689F
:102D40000533084A52791A70BB680633054A9279EE
:102D50001A7000E000BF002318461437BD465DF826
:102D6000047B7047A000002080B582B000AF78607F
:102D700039603B687868194600F004F80837BD46AA
:102D800080BD00BF80B485B000AF7860396000239B
:102D9000FB6017E0114B1B687968FA680A441178E8
:102DA0000F4AD1540D4B1B685A1C0C4B1A60FB6820
:102DB0000133FB60094B1B68B3F5006F02D1074B71
:102DC00000221A60FA683B689A42E3D3002318464F
:102DD0001437BD465DF8047B704700BF58010020E2
:102DE000C008002080B485B000AF7860396000234F
:102DF000FB601EE0144B1B687968FA680A4411787E
:102E0000124AD154104B1B685A1C0F4B1A600E4BC0
:102E10001B68802B02D10C4B00221A600A4B1A68E7
:102E20000B4B1B689A4201D1022307E0FB68013378
:102E3000FB60FA683B689A42DCD3002318461437DB
:102E4000BD465DF8047B7047FC0700206807002042
:102E5000E807002080B483B000AF7860104B1A6898
:102E6000104B1B689A4201D1002312E00D4B1B68E6
:102E70000D4AD25C7B681A700A4B1B685A1C094BBE
:102E80001A60084B1B68802B02D1064B00221A6087
:102E9000012318460C37BD465DF8047B704700BF20
:102EA000FC070020E80700206807002080B500AF7D
:102EB000114B114A126842F001021A600E4B0022B7
:102EC0009A600D4A0C4B1B6823F0847323F4803303
:102ED0001360094B094A5A60074B074A126822F4EB
:102EE00080221A60044B0022DA6000F087F8044B5D
:102EF0004FF000629A6080BD00380240103000241C
:102F000000ED00E080B487B000AF00233B610023F8
:102F10007B610223FB600023BB6002237B60324B9A
:102F20009B6803F00C033B613B69042B07D0082B23
:102F300009D0002B3FD12D4B2D4A1A603FE02B4B7F
:102F40002C4A1A603BE0284B5B6803F480039B0D1E
:102F5000BB60254B5B6803F03F037B60BB68002BC5
:102F60000DD0244A7B68B2FBF3F21F4B596847F639
:102F7000C0730B409B0903FB02F37B610CE01C4A0E
:102F80007B68B2FBF3F2184B596847F6C0730B40ED
:102F90009B0903FB02F37B61134B5B6803F4403333
:102FA0001B0C01335B00FB607A69FB68B2FBF3F238
:102FB0000E4B1A6003E00D4B0D4A1A6000BF0A4B1E
:102FC0009B6803F0F0031B090B4AD35CDBB23B6147
:102FD000064B1A683B69DA40044B1A601C37BD4641
:102FE0005DF8047B704700BF00380240BC00002041
:102FF0000024F40000127A00C000002080B483B0E6
:1030000000AF00237B6000233B60354B344A1268DD
:1030100042F480321A60324B1B6803F400333B6089
:103020007B6801337B603B68002B03D17B68B3F581
:10303000A06FF0D12A4B1B6803F40033002B02D0A1
:1030400001233B6001E000233B603B68012B42D140
:10305000234B234A126C42F080521A64214B214ABE
:10306000126842F480421A601D4B1D4A92689A60B1
:103070001B4B1B4A926842F400429A60184B184A54
:10308000926842F4A0529A60154B174A5A60144B4A
:10309000134A126842F080721A6000BF104B1B681E
:1030A00003F00073002BF9D0104B40F205621A6058
:1030B0000B4B0B4A926822F003029A60084B084AB5
:1030C000926842F002029A6000BF054B9B6803F0D1
:1030D0000C03082BF9D10C37BD465DF8047B704713
:1030E000003802400070004008544007003C024095
:1030F00080B584B000AF786001200121FFF732FB7A
:103100004FF4D853BB6003237B7302233B7300232C
:10311000BB730023FB7307F1080320481946FFF730
:1031200089FC1E4808210A22FFF740FD1B4809219F
:103130000A22FFF73BFD19480B210A22FFF736FD53
:1031400016480C210A22FFF731FD4FF48063BB6063
:103150000123BB730123FB7303237B7307F1080374
:103160000E481946FFF766FC0C480A210A22FFF7B1
:103170001DFD4FF480400121FFF74EFB802001210F
:10318000FFF70EFB4FF080500121FFF763FB01209A
:1031900001F01CFF1037BD4680BD00BF000002409B
:1031A00080B584B000AF78604FF4C06001F01CFFC0
:1031B00043233B7301237B730323BB730123FB7303
:1031C00007F10C03184601F021FF1037BD4680BD02
:1031D00080B485B000AF78600023FB607A68134646
:1031E0001B019B1ADB001A460A4BA3FB0213D21ADF
:1031F000520813449B08BB60FB680133FB60FA680C
:10320000BB689A4200D900E0F6E71437BD465DF886
:10321000047B70472549922480B582B000AF786066
:103220007B684FF47A7202FB03F31846FFF7D0FF76
:103230000837BD4680BD00BF80B584B000AF786060
:1032400039600023FB733B685B78092B39D801A2F6
:1032500052F823F0A5320008B9320008C332000842
:10326000AF320008C3320008873200087D32000800
:10327000C33200089B320008913200087868396830
:1032800000F036F922E07868396800F00DFA1DE0A8
:103290007868396800F046FA18E07868396800F014
:1032A000BBFA13E07868396800F0E6FA0EE0786857
:1032B000396800F009FB09E07868396800F06AFBBA
:1032C00004E07868396800F0D3FB00BFFB7B184648
:1032D0001037BD4680BD00BF80B584B000AF7860B8
:1032E00039600023FB737B6893F81231032B1CD1E8
:1032F0003B689B88DBB2012B11D87B68D3F8E035A3
:103300009B687868396898473B68DB88002B0BD14D
:10331000FB7B002B08D1786802F052F90AE078684C
:10332000396800F0A5FB05E004E07868396800F032
:103330009FFB00BFFB7B18461037BD4680BD00BF1A
:1033400080B584B000AF786039600023FB733B68C0
:103350009B88BB733B685B78012B39D0032B02D071
:10336000002B6BD0BCE07B6893F81231022B02D0AB
:10337000032B0DD026E0BB7B002B08D0BB7B802B22
:1033800005D0BB7B7868194602F020F81FE01EE0EC
:103390003B685B88002B0AD1BB7B002B07D0BB7B33
:1033A000802B04D0BB7B7868194602F00FF87B684D
:1033B000D3F8E0359B68786839689847786802F0F8
:1033C000FFF804E07868396800F052FB00BF87E03E
:1033D0007B6893F81231022B02D0032B0DD027E02B
:1033E000BB7B002B08D0BB7B802B05D0BB7B7868D8
:1033F000194601F0EBFF20E01FE03B685B88002BE3
:1034000015D1BB7B002B0ED0BB7B802B0BD0BB7BA5
:103410007868194602F014F87B68D3F8E0359B68A9
:10342000786839689847786802F0CAF805E004E0DF
:103430007868396800F01CFB00BF51E07B6893F8A6
:103440001231022B02D0032B0DD043E0BB7B002BAB
:1034500008D0BB7B802B05D0BB7B7868194601F078
:10346000B5FF3CE03BE0BB7B5BB2002B15DABB7BDE
:1034700003F07F02796813469B001344DB000B4482
:1034800003F58C739B78002B03D0184B01221A6034
:103490001AE0164B00221A6016E0BB7B5BB2002BD1
:1034A00012DBBA7B796813469B001344DB000B44A4
:1034B00003F55C739B78002B03D00C4B01221A6040
:1034C00002E00A4B00221A6078680849022202F0E2
:1034D0000FF804E07868396800F0CAFA00BF00BF4E
:1034E000FB7B18461037BD4680BD00BF440100205D
:1034F00080B584B000AF786039603B685B881B0A98
:103500009BB2013B062B00F2B18001A252F823F0DE
:103510002D3500085F350008893500086D36000834
:103520006D36000859360008633600087B68D3F80A
:10353000E8351B687A68917807F10A020846114657
:103540009847F8603B68DB88402B04D07B6893F891
:103550001231012B02D108237B818CE08BE07B6848
:10356000D3F8E0359B6A7A68917807F10A02084639
:1035700011469847F860FB68013302221A707B6895
:10358000FA68C3F8EC2576E03B685B88DBB2052B74
:103590005CD801A252F823F0B1350008CB35000801
:1035A000E5350008FF3500081936000833360008F5
:1035B0007B68D3F8E8355B687A68917807F10A028E
:1035C000084611469847F86045E07B68D3F8E8352F
:1035D0009B687A68917807F10A0208461146984775
:1035E000F86038E07B68D3F8E835DB687A68917872
:1035F00007F10A02084611469847F8602BE07B68FD
:10360000D3F8E8351B697A68917807F10A02084611
:1036100011469847F8601EE07B68D3F8E8355B698F
:103620007A68917807F10A02084611469847F860CF
:1036300011E07B68D3F8E8359B697A68917807F1E7
:103640000A02084611469847F86004E0786839682D
:1036500000F00EFA24E00EE07868396800F008FA0D
:103660001EE07868396800F003FA19E07868396874
:1036700000F0FEF914E07B89002B11D03B68DB8859
:10368000002B0DD03B68DA887B899A4238BF1346FD
:103690009BB27B817B897868F9681A4601F028FF24
:1036A0001037BD4680BD00BF80B584B000AF7860E4
:1036B00039603B689B88002B2DD13B68DB88002B51
:1036C00029D13B685B88DBB203F07F03FB737B6827
:1036D00093F81231032B04D17868396800F0C8F9E7
:1036E00018E07B68FA7B83F81321FB7B7868194626
:1036F00001F0E0FE786801F063FFFB7B002B04D053
:103700007B68022283F8122104E07B68012283F89F
:10371000122104E003E07868396800F0A9F9103755
:10372000BD4680BD80B582B000AF786039603B682F
:103730005B88DAB2374B1A70364B1B78012B04D9F1
:103740007868396800F094F960E07B6893F812318A
:10375000022B02D0032B1BD053E02E4B1B78002BE7
:1037600012D02C4B1A787B6883F810217B680322D7
:1037700083F81221274B1B7878681946FEF75AFD0B
:10378000786801F01DFF41E0786801F019FF3DE025
:10379000204B1B78002B12D17B68022283F8122168
:1037A0001C4B1A787B6883F810211A4B1B787868B9
:1037B0001946FEF757FD786801F002FF20E07B68AC
:1037C00093F81021134B1B789A4215D07B6893F81D
:1037D000103178681946FEF745FD0E4B1A787B6864
:1037E00083F810210B4B1B7878681946FEF722FDF1
:1037F000786801F0E5FE03E0786801F0E1FE05E09D
:1038000004E07868396800F033F900BF0837BD4636
:1038100080BD00BF5001002080B582B000AF78604D
:1038200039603B68DB88012B04D07868396800F088
:103830001FF91BE07B6893F81231022B02D0032B97
:1038400006D00EE078680B49012201F051FE0DE030
:103850007B6803F5887378681946012201F048FEF9
:1038600004E07868396800F003F900BF0837BD4606
:1038700080BD00BF4801002080B582B000AF7860F5
:1038800039607B6893F81231023B012B11D87B68B9
:10389000D3F81431002B03D00A4B03221A6002E044
:1038A000084B01221A6078680649012201F020FEC7
:1038B00004E07868396800F0DBF800BF0837BD46DF
:1038C00080BD00BF4C01002080B584B000AF78609F
:1038D00039600023FB733B685B88012B0ED17B684A
:1038E0000122C3F814217B68D3F8E0359B6878681F
:1038F00039689847786801F063FE48E03B685B8868
:10390000022B44D13B689B88DBB2002B3FD17B6804
:103910001B695B68BB603B689B881B0A9BB2FB739F
:10392000FB7B013B042B2BD801A252F823F000BFF4
:1039300045390008513900085D3900086939000827
:10394000753900083B7A012262F306133B7217E0D7
:103950003B7A022262F306133B7211E03B7A0322A8
:1039600062F306133B720BE03B7A042262F3061308
:103970003B7205E03B7A052262F306133B7200BFFF
:103980007B681B69BA685A60786801F019FE1037C5
:10399000BD4680BD80B582B000AF786039607B687D
:1039A00093F81231023B012B13D83B685B88012B43
:1039B0000ED17B680022C3F814217B68D3F8E03570
:1039C0009B68786839689847786801F0F9FD05E0E8
:1039D00004E07868396800F04BF800BF0837BD464E
:1039E00080BD00BF80B483B000AF786039607B6871
:1039F00093F8C8253B681A707B6893F8C9253B6823
:103A00005A707B6893F8CA351A467B6893F8CB35B1
:103A10001B029BB213449AB23B685A807B6893F8AE
:103A2000CC351A467B6893F8CD351B029BB2134404
:103A30009AB23B689A807B6893F8CE351A467B68C9
:103A400093F8CF351B029BB213449AB23B68DA80DD
:103A50003B68DB881A467B68C3F83C217B680122FF
:103A600083F811210C37BD465DF8047B704700BF19
:103A700080B582B000AF786039603B681B78DBB2FC
:103A80005BB2002B04DA7868802101F09FFC0CE027
:103A90003B68DB88002B04D17868802101F096FC1C
:103AA00003E07868002101F091FC7868FEF744F9A2
:103AB0000837BD4680BD00BF80B586B000AFF86056
:103AC000B9607A600023FB75FB68002B2FD0F86883
:103AD00000F030F8034601339BB25B009AB27B687A
:103AE0001A80FB7D5A1CFA75BA6813447A681288EA
:103AF000D2B21A70FB7D5A1CFA75BA6813440322BD
:103B00001A7010E0FB7D5A1CFA75BA681A44FB68FB
:103B1000591CF9601B781370FB7D5A1CFA75BA6842
:103B2000134400221A70FB681B78002BEAD1183767
:103B3000BD4680BD80B485B000AF78600023FB73C4
:103B400005E0FB7B0133FB737B6801337B607B68A3
:103B50001B78002BF5D1FB7B18461437BD465DF86A
:103B6000047B704780B586B000AF786000237B612E
:103B70007868FDF70BFB0346002B00F09C8078680B
:103B8000FDF716FB03463B613B69002B01D1002387
:103B900092E0BB7CC3F3C003DBB2002B06D0786895
:103BA00000F012FA03467A6913437B61BB7CC3F3CE
:103BB0008003DBB2002B06D0786800F00FF90346D3
:103BC0007A6913437B613B7CC3F34003DBB2002B78
:103BD00009D00023FB603B7B43F002033B737B680F
:103BE000DB68FA685A61FB7CC3F3C013DBB2002BBD
:103BF00006D0786800F064F803467A6913437B6165
:103C00007B7CC3F3C003DBB2002B06D0786800F0E6
:103C100097F803467A6913437B613B7CC3F3C00387
:103C2000DBB2002B06D0786800F08AFA03467A6986
:103C300013437B613B7CC3F30013DBB2002B06D044
:103C4000786800F097FA03467A6913437B617B7CBE
:103C5000C3F30013DBB2002B06D0786800F07EFBC4
:103C600003467A6913437B617B7CC3F34013DBB269
:103C7000002B06D0786800F013FC03467A691343E2
:103C80007B61BB7CC3F30013DBB2002B06D07868EA
:103C900000F042FC03467A6913437B61BB7CC3F3AB
:103CA0004013DBB2002B06D0786800F04FFC0346CF
:103CB0007A6913437B617B6918461837BD4680BD1E
:103CC00080B586B000AF78607B689B7A002B11D0FE
:103CD0007B6803F586731B68FB603B7B6FF34103D6
:103CE0003B733B7B6FF300033B737B68D3F80C3172
:103CF000FA681A6000233B613B7C43F001033B748C
:103D00007B681B697A68126951683A69D2430A4034
:103D10005A600A4B1B689B697868984700237B614F
:103D2000FB7D43F08003FB757B68DB687A695A6131
:103D3000012318461837BD4680BD00BF4C00002047
:103D400080B586B000AF7860224B1B685B697868ED
:103D500098477B681B699B68FB6000237B617B7DC8
:103D600043F008037B757B68DB687A695A617B687E
:103D70009B7A002B29D03B7BC3F30003DBB2012BE2
:103D800023D100233B613B7C43F001033B747B6800
:103D9000D3F80C317A68D2F80C2111683A690A43D9
:103DA0001A603B7C43F002033B747B68D3F80C3110
:103DB0007A68D2F80C2111683A690A431A60064BF6
:103DC000054A126942F006021A61012318461837A3
:103DD000BD4680BD4C00002000ED00E080B586B0FF
:103DE00000AF786000233B610023BB607868FDF77B
:103DF0008DFF7861DCE07B6903F00103002B00F0AC
:103E0000D1803B69DBB27868194600F0B9FB034604
:103E1000BB603B7AC3F30003DBB2002B32D03B69BB
:103E2000012202FA03F3FB607B681B697A6812695E
:103E3000516BFA68D2430A405A630023BB603B7A55
:103E400043F001033B727A683B6904339B001344DF
:103E50009B68BA689A605B4B1B685B683A69D2B230
:103E60007868114698477B68DB78012B0AD13B695B
:103E7000002B07D17B6893F81131042B02D17868AD
:103E8000FDF75AFF3B7AC3F38003DBB2002B0DD062
:103E90000023BB603B7A43F004033B727A683B69C2
:103EA00004339B0013449B68BA689A603B7AC3F35F
:103EB000C003DBB2002B0DD00023BB603B7A43F084
:103EC00008033B727A683B6904339B0013449B6888
:103ED000BA689A603B7AC3F30013DBB2002B0DD0B3
:103EE0000023BB603B7A43F010033B727A683B6966
:103EF00004339B0013449B68BA689A603B7AC3F30F
:103F00004013DBB2002B0DD00023BB603B7A43F0A3
:103F100020033B727A683B6904339B0013449B681F
:103F2000BA689A603B7AC3F38013DBB2002B0DD0E2
:103F30000023BB603B7A43F040033B727A683B69E5
:103F400004339B0013449B68BA689A603B7AC3F3BE
:103F50004003DBB2002B0DD00023BB603B7A43F063
:103F600002033B727A683B6904339B0013449B68ED
:103F7000BA689A603B7AC3F3C013DBB2002B11D04E
:103F80007868396900F078F90023BB603B7A43F028
:103F900080033B727A683B6904339B0013449B683F
:103FA000BA689A603B6901333B617B695B087B615E
:103FB0007B69002B7FF41FAF012318461837BD46DD
:103FC00080BD00BF4C00002080B586B000AF786097
:103FD00000233B610023FB607868FDF765FE786194
:103FE000A3E07B6903F00103002B00F098803B699C
:103FF000DBB278681946FDF76DFE0346FB603B7B3C
:10400000C3F30003DBB2002B48D00023FB603B7BF3
:1040100043F001033B737A683B6914339B001344FC
:104020005B68FA689A607B68DB78012B1FD17A683D
:104030003B6914339B0013445B681B69BB60796860
:104040003A6913469B001344DB000B4403F55E738F
:104050001A68BB68C3F31203D11A78683A69134629
:104060009B001344DB00034403F562731960334B78
:104070001B681B683A69D2B27868114698477B681A
:10408000DB78012B0AD13B69002B07D17B6893F8C1
:104090001131052B02D17868FDF74EFE3B7BC3F34F
:1040A0004003DBB2002B0DD00023FB603B7B43F0D1
:1040B00002033B737A683B6914339B0013445B68CB
:1040C000FA689A603B7BC3F38003DBB2002B0DD010
:1040D0000023FB603B7B43F004033B737A683B693E
:1040E00014339B0013445B68FA689A603B7BC3F30C
:1040F000C003DBB2002B12D0104B1B689B687868A2
:1041000098470023FB603B7B43F008033B737A68CE
:104110003B6914339B0013445B68FA689A603B69FF
:1041200001333B617B695B087B617B69002B7FF41A
:1041300058AF012318461837BD4680BD4C000020FB
:1041400080B584B000AF7860094B1B68DB68786885
:1041500098470023FB603B7B43F008033B737B687D
:10416000DB68FA685A61012318461037BD4680BDE6
:104170004C00002080B586B000AF786000233B6122
:104180003B7C43F010033B747B68DB687A68D26841
:1041900091693A69D2430A409A617B68DB681B6A7D
:1041A000FB603B7BC3F30303DBB21A4613469B0061
:1041B0001344DB0003F55C737A6813447B61BB7BBB
:1041C000C3F34303DBB2013B052B46D801A252F8EF
:1041D00023F000BF5B420008ED4100085B4200088D
:1041E0005B4200085B42000837420008BB89C3F30A
:1041F0000A139BB2002B1DD07B69DA68BB89C3F31D
:104200000A139BB2786811461A46FCF709FD7B69D0
:10421000DA68BB89C3F30A139BB21A447B69DA607C
:104220007B699A69BB89C3F30A139BB21A447B6901
:104230009A6113E012E07B6803F5B9637868194668
:104240000822FCF7EDFC7B699A69BB89C3F30A136A
:104250009BB21A447B699A6100E000BF7B68DB680F
:104260007A68D26891693A690A439A6101231846CB
:104270001837BD4680BD00BF80B586B000AF7860FE
:10428000396000237B610023BB603A6813469B00C2
:104290001344DB0003F58C737A681344FB60FB68FE
:1042A0005A69FB689B69D31A7B61FB689A687B69D2
:1042B0009A4202D2FB689B687B617B6903339B084F
:1042C0003B617A683B6804339B0013449B689B699D
:1042D000BB602EE0FB685A69FB689B69D31A7B615F
:1042E000FB689A687B699A4202D2FB689B687B6193
:1042F0007B6903339B083B61FB68D9683B68DAB292
:104300007B699BB27868FCF753FCFB68DA687B69D1
:104310001A44FB68DA60FB689A697B691A44FB6897
:104320009A617A683B6804339B0013449B689B69DD
:10433000BB603B891A463B699A4209D9FB689A6976
:10434000FB685B699A4203D2FB685B69002BC1D1B1
:10435000012318461837BD4680BD00BF80B58AB01E
:1043600000AF786000233B6100233B620023FB61C8
:104370000023BB6100237B610023FB603B7C43F097
:1043800001033B747B681B697A68126951683A695A
:10439000D2430A405A6078680021FCF74DFE0023A2
:1043A0007B6212E07A687B6A04339B0013449B684B
:1043B000FF229A607A687B6A14339B0013445B681F
:1043C000FF229A607B6A01337B627B685B781A46C6
:1043D0007B6A9A42E6D87B681B694FF0FF329A618C
:1043E0003B8C012262F30F033B847B8C012262F33E
:1043F0000F037B847B681B693A6ADA613B7F43F079
:1044000008033B773B7F43F001033B773B7F43F05F
:1044100004033B773B7F43F002033B777B681B69D8
:10442000FA695A613B7E43F001033B763B7E43F0E1
:1044300008033B763B7E43F002033B763B7E43F032
:1044400004033B763B7E43F020033B767B681B698D
:10445000BA691A617B681B691B687B61BB8A6FF351
:104460000A13BB827B681B697A691A607868FDF75A
:1044700063FC0023FB607B7B43F010037B737B6852
:10448000DB68FA685A61054B1B681B6978689847B6
:10449000012318462837BD4680BD00BF4C000020D0
:1044A00080B584B000AF78607868FDF763F87B680A
:1044B000DB68DB68BB607868FDF738F80346032BE0
:1044C0000CD17B6800229A707B684FF400729A804E
:1044D0007B7A092262F385037B720AE07B68012202
:1044E0009A707B6840229A807B7A052262F385036A
:1044F0007B727B68DB68BA68DA600023FB607B7BD9
:1045000043F020037B737B68DB68FA685A61012300
:1045100018461037BD4680BD80B584B000AF7860C6
:104520000023FB60084B1B68DB6978689847BB7BFE
:1045300043F01003BB737B68DB68FA685A610123A0
:1045400018461037BD4680BD4C00002080B584B0B1
:1045500000AF78600023FB60084B1B681B6A78681B
:104560009847BB7B43F02003BB737B68DB68FA682A
:104570005A61012318461037BD4680BD4C0000200B
:1045800080B487B000AF78600B46FB707B681B6916
:104590001B697B617B681B695B6B3B61FB783A69DC
:1045A00022FA03F3DB01DBB27A6913437B61FB7808
:1045B0007A6804339B0013449B689A687B691340B4
:1045C000FB60FB6818461C37BD465DF8047B7047EE
:1045D00080B584B000AF78600B46FB707B68D3F881
:1045E000EC3539331B88786881211A46022300F0A4
:1045F000EBFD7B68D3F8EC3540331B8878680121EC
:104600001A46022300F0E0FD786882210822032385
:1046100000F0DAFD0D4BFB60FB68043302221A70D8
:10462000FB68053300221A70094B1B6898477B68AA
:10463000D3F8EC3540331B8878680121054A00F037
:1046400049FE002318461037BD4680BD7C0000207F
:10465000A80000207808002080B582B000AF786004
:104660000B46FB707868812100F0FCFD7868012121
:1046700000F0F8FD7868822100F0F4FD034B5B68E0
:104680009847002318460837BD4680BDA800002083
:1046900080B584B000AF786039603B681B7803F068
:1046A0006003002B3FD0202B37D13B68DB88002BE9
:1046B00029D03B681B78DBB25BB2002B11DA364B9A
:1046C0009B683A68527811463A68D288084633495E
:1046D00098473B68DB88786830491A4600F008FF45
:1046E00019E03B685B781A462D4B1A603B68DB8803
:1046F0001A462C4B1A603B68DB88786827491A46B3
:1047000000F02AFF07E0244B9B683A685278104675
:1047100000210022984700233AE078683968FFF7C3
:10472000A7F9022334E03B685B780A2B18D00B2BE7
:104730001CD0062B2BD13B685B881B0A9BB2212B1C
:1047400007D1194BBB603B68DB883A2B28BF3A2363
:10475000FB81FB897868B9681A4600F0C9FE16E04B
:1047600078681249012200F0C3FE10E03B685B88C4
:10477000DBB2002B06D13B685B88DBB21A460B4BE1
:104780001A6003E078683968FFF772F900BF002308
:1047900018461037BD4680BDA8000020B80800208C
:1047A0001401002068010020E200002054010020D4
:1047B00080B582B000AF78600A4B1B68FF2B0BD02E
:1047C000094B9B68074A1168084A1268084608495D
:1047D0009847044BFF221A60002318460837BD464D
:1047E00080BD00BF14010020A80000206801002047
:1047F000B808002080B584B000AF78600B46FB702D
:10480000284B1B78012B48D1274B1B68002B03D169
:10481000244B00221A7040E07B68D3F8EC35393322
:104820001B881A46204B1B689A421ED21F4B1B68DE
:10483000FB817B68D3F8EC35B3F83930BB817B68FA
:10484000D3F8EC3539331B881A46184B1B681A44C9
:10485000164B1A60144B1A687B68D3F8EC35393361
:104860001B88D21A104B1A600FE0104B1B68FB819B
:104870000D4B1B68BB810D4B1A680B4B1B681A4410
:104880000A4B1A60084B00221A60FA89084B1A4436
:10489000BB897868812100F05DFD00231846103740
:1048A000BD4680BD64010020600100205C01002045
:1048B000C008002080B584B000AF78600B46FB7064
:1048C000FA78796813469B001344DB000B4403F528
:1048D00062731B68FB810A4B1B69FA890948114600
:1048E00098477B68D3F8EC3540331B887868012102
:1048F000044A00F0EFFC002318461037BD4680BD87
:10490000A80000207808002080B582B000AF786051
:10491000084B1B68591C074A1160052B05D1054B34
:1049200000221A60786800F007F80023184608375C
:10493000BD4680BD6C01002080B584B000AF7860BA
:10494000384B1B78012B69D0374B1B68B3F5006FD0
:1049500002D1354B00221A60334B1A68334B1B6867
:104960009A4203D12F4B00221A7057E02E4B1A683F
:104970002E4B1B689A4206D92B4B1B68C3F500626D
:104980002B4B1A6006E0294B1A68274B1B68D21A7A
:10499000274B1A607B68D3F8EC3539331B881A46ED
:1049A000234B1B689A421ED21F4B1B68FB817B68FE
:1049B000D3F8EC35B3F83930BB817B68D3F8EC35EC
:1049C00039331B881A46184B1B681A44164B1A6059
:1049D000174B1A687B68D3F8EC3539331B88D21A29
:1049E000134B1A600FE0104B1B68FB81104B1B68C8
:1049F000BB810D4B1A680E4B1B681A440A4B1A6098
:104A00000B4B00221A60074B01221A70FA89094BDE
:104A10001A44BB897868812100F09CFC1037BD46A0
:104A200080BD00BF640100205C010020580100200F
:104A300060010020C008002080B483B000AF0346AE
:104A40003960FB713B6843221A80034B18460C37D0
:104A5000BD465DF8047B7047D000002080B582B071
:104A600000AF78607A68174B9A420AD14FF48050B1
:104A70000121FDF70DFF4FF480500021FDF708FFE5
:104A80001CE07A68104B9A420AD14FF48040012111
:104A9000FDF7E0FE4FF480400021FDF7DBFE0DE066
:104AA0007A680A4B9A4209D14FF400400121FDF780
:104AB000D1FE4FF400400021FDF7CCFE0837BD4683
:104AC00080BD00BF0030014000380040003C004085
:104AD00080B485B000AF786039600023FB817B68CB
:104AE0001B88FB81FB8903F44153FB813B681A88D7
:104AF0003B685B8813439AB23B689B8813439AB226
:104B00003B68DB8813439AB23B681B8913439AB214
:104B10003B685B8913439AB23B689B8913439AB203
:104B20003B68DB8913439AB2FB891343FB817B68A3
:104B3000FA891A807B689B8B9BB223F400639AB23C
:104B40007B689A833B681A8A7B681A821437BD4651
:104B50005DF8047B704700BF80B483B000AF78601D
:104B60000B46FB70FB78002B08D07B681B889BB240
:104B700043F040039AB27B681A8007E07B681B8889
:104B80009BB223F040039AB27B681A800C37BD4673
:104B90005DF8047B704700BF80B483B000AF7860DD
:104BA0007B689B899BB218460C37BD465DF8047B39
:104BB000704700BF80B483B000AF78600B467B8045
:104BC0007B687A889A810C37BD465DF8047B704714
:104BD00080B485B000AF78600B467B800023FB7308
:104BE0007B681B899AB27B8813409BB2002B02D052
:104BF0000123FB7301E00023FB73FB7B1846143792
:104C0000BD465DF8047B704780B58AB000AF786020
:104C100039600023FB8400237B840423BB84574B2F
:104C2000FB617B689B88FB84FB8C23F03F03FB8448
:104C300007F10C031846FDF7EBFC7B69FB61FA6991
:104C40004F4BA3FB02139B0C7B84FA8C7B8C13438E
:104C5000FB847B68FA8C9A807B681B889BB223F06C
:104C600001039AB27B681A800023FB843B681A68B0
:104C7000444B9A4215D83B681B685B00FA69B2FB4B
:104C8000F3F3BB84BB8C032B01D80423BB84FA8CC5
:104C9000BB8C1343FB847B8C01339AB27B681A84F0
:104CA00040E03B68DA884BF6FF739A4209D13B68D3
:104CB0001A6813465B001344FA69B2FBF3F3BB8432
:104CC0000EE03B681A6813469B0013449A00134495
:104CD000FA69B2FBF3F3BB84BB8C43F48043BB841F
:104CE000BB8CC3F30B03002B03D1BB8C43F001033C
:104CF000BB84BA8CFB8C13439BB26FEA43436FEACD
:104D00005343FB847B8C4FF4967202FB03F31E4AE1
:104D100082FB03129211DB17D31A9BB201339AB2B2
:104D20007B681A847B68FA8C9A837B681B889BB2A9
:104D300043F001039AB27B681A807B681B88FB846E
:104D4000FB8C23F4816323F00203FB843B689A8885
:104D50003B685B8913439AB2FB8C1343FB847B68EB
:104D6000FA8C1A803B689A893B681B8913439AB274
:104D70007B681A812837BD4680BD00BF00127A00CB
:104D800083DE1B43A0860100D34D621080B483B044
:104D900000AF78600B46FB70FB78002B08D07B6877
:104DA0001B889BB243F001039AB27B681A8007E02C
:104DB0007B681B889BB223F001039AB27B681A8040
:104DC0000C37BD465DF8047B704700BF80B483B0EC
:104DD00000AF78600B46FB70FB78002B08D07B6837
:104DE0001B889BB243F480739AB27B681A8007E0F9
:104DF0007B681B889BB223F480739AB27B681A800D
:104E00000C37BD465DF8047B704700BF80B483B0AB
:104E100000AF78600B46FB70FB78002B08D07B68F6
:104E20001B889BB243F400739AB27B681A8007E038
:104E30007B681B889BB223F400739AB27B681A804C
:104E40000C37BD465DF8047B704700BF80B483B06B
:104E500000AF786013460A46FA70BB70BB78002B2F
:104E600004D0FB7843F00103FB7003E0FB7823F0F0
:104E70000103FB70FB789AB27B681A820C37BD463F
:104E80005DF8047B704700BF80B483B000AF7860EA
:104E90000B46FB70FB78002B08D07B681B889BB20D
:104EA00043F480639AB27B681A8007E07B681B88B2
:104EB0009BB223F480639AB27B681A800C37BD469C
:104EC0005DF8047B704700BF80B483B000AF7860AA
:104ED0000B46FB70FB789AB27B681A820C37BD4692
:104EE0005DF8047B704700BF80B483B000AF78608A
:104EF0007B681B8A9BB2DBB218460C37BD465DF857
:104F0000047B704780B487B000AF786039600023BD
:104F10003B610023FB600023BB600023FB757B68C3
:104F20009B8A9BB2FB607B681B8B9BB2BB60BB68A0
:104F30001B04BB60FA68BB68134323F07F433B61EB
:104F40003A693B681A403B689A4202D10123FB75DB
:104F500001E00023FB75FB7D18461C37BD465DF85C
:104F6000047B704780B487B000AF7860396000235D
:104F7000FB7500233B610023FB607B68FB603B68A3
:104F80001B0F3B613B6823F07F433B603B69002B79
:104F900003D0FB681433FB6005E03B681B0C3B60EF
:104FA000FB681833FB60FB681A683B681340002BF2
:104FB00002D00123FB7501E00023FB75FB7D184641
:104FC0001C37BD465DF8047B704700BF80B483B0DA
:104FD00000AF7860034B7A685A610C37BD465DF8C4
:104FE000047B7047003C014080B483B000AF786020
:104FF000054A7B6843F0BF6343F40033D3600C374A
:10500000BD465DF8047B704700ED00E080B485B0DC
:1050100000AF78600023FB730023BB730F237B7307
:105020007B68DB78002B37D0254BDB68DB4303F450
:10503000E0631B0AFB73FB7BC3F10403BB737A7B46
:10504000FB7B42FA03F37B737B685B781A46BB7B7E
:1050500002FA03F3FB737B689A787B7B1340DAB226
:10506000FB7B1343FB73FB7B1B01FB73154A7B68C4
:105070001B781344FA7B83F80023124B7A6812786A
:105080005209D2B27968097801F01F01012000FAB3
:1050900001F143F822100EE00A4B7A6812785209A7
:1050A000D2B27968097801F01F01012000FA01F1FC
:1050B000203243F822101437BD465DF8047B704758
:1050C00000ED00E000E100E080B584B000AF786062
:1050D0000B46FB70FB7878681946FBF7CDFD7B68C3
:1050E000012283F812217B68002283F81321002318
:1050F000FB6023E0FA6813469B001344DB0003F5D2
:105100008C737A681344BB60BB6801225A70FB68D9
:10511000DAB2BB681A70FB689AB2BB68DA80BB6807
:105120000022DA70BB6840229A60BB680022DA6015
:10513000BB6800225A61FB680133FB607B685B78C7
:105140001A46FB689A42D5D80023FB6023E0FA6830
:1051500013469B001344DB0003F55C737A68134429
:10516000BB60BB6800225A70FB68DAB2BB681A7079
:10517000FB689AB2BB68DA80BB680022DA70BB6851
:1051800040229A60BB680022DA60BB6800225A6144
:10519000FB680133FB607B685B781A46FB689A42C8
:1051A000D5D87868FBF72CFF7868FBF71FFE786886
:1051B0000021FBF7ABFF7868FCF72EF87868FBF767
:1051C00003FF1037BD4680BD80B584B000AF786066
:1051D000F9703A80BB70FB785BB2002B0CDAFB787D
:1051E00003F07F0213469B001344DB0003F58C732E
:1051F0007A681344FB600BE0FB7803F07F021346F0
:105200009B001344DB0003F55C737A681344FB6076
:10521000FB7803F07F03DAB2FB681A70FB78DB09D6
:10522000DBB21A46FB685A703A88FB689A60FB68E2
:10523000BA78DA70FB685B78002B04D0FB681B78C7
:105240001A46FB68DA80BB78022B02D1FB68002289
:105250001A717868F968FCF7C9F900231846103705
:10526000BD4680BD80B584B000AF78600B46FB7052
:10527000FB785BB2002B0CDAFB7803F07F0213465D
:105280009B001344DB0003F58C737A681344FB60C6
:105290000BE0FB7803F07F0213469B001344DB0016
:1052A00003F55C737A681344FB60FB7803F07F03BB
:1052B000DAB2FB681A70FB78DB09DBB21A46FB68CE
:1052C0005A707868F968FCF7FFF900231846103720
:1052D000BD4680BD80B586B000AFF8607A600A46F2
:1052E000FA723B81FB7A03F07F0213469B00134462
:1052F000DB0003F55C73FA6813447B617B697A68B1
:10530000DA603A897B695A617B6900229A617B691C
:1053100000225A70FB7A03F07F03DAB27B691A70BD
:10532000FB68DB78012B02D17A687B691A617B69A3
:105330001B78002B04D1F8687969FCF74BFB03E07C
:10534000F8687969FCF706FA002318461837BD4655
:1053500080BD00BF80B586B000AFF8607A603B606A
:105360000B46FB72FB7A03F07F0213469B0013444B
:10537000DB0003F58C73FA6813447B617B690122BF
:105380005A70FB7A03F07F03DAB27B691A707B698B
:105390007A68DA607A687B691A617B6900229A61AF
:1053A0007B693A685A617B691B78002B04D1F868E5
:1053B0007969FCF70FFB03E0F8687969FCF7CAF933
:1053C000002318461837BD4680BD00BF80B584B0A5
:1053D00000AF78600B46FB70FB785BB2002B0CDAF9
:1053E000FB7803F07F0213469B001344DB0003F5B8
:1053F0008C737A681344FB6009E0FA7813469B00CB
:105400001344DB0003F55C737A681344FB60FB68AC
:1054100001229A70FB7803F07F03DAB2FB681A70FE
:10542000FB78DB09DBB21A46FB685A707868F968CA
:10543000FCF7BAFB002318461037BD4680BD00BFFD
:1054400080B584B000AF78600B46FB70FB785BB230
:10545000002B0CDAFB7803F07F0213469B00134409
:10546000DB0003F58C737A681344FB6009E0FA787B
:1054700013469B001344DB0003F55C737A68134406
:10548000FB60FB6800229A70FB7803F07F03DAB2BE
:10549000FB681A70FB78DB09DBB21A46FB685A70AE
:1054A0007868F968FCF7C4FB002318461037BD463E
:1054B00080BD00BF80B485B000AF78600B46FB7044
:1054C0000023FB60FB7803F07F03DAB2BB8962F351
:1054D0000A13BB817B681B697A6812691168FA68D4
:1054E0000A431A601437BD465DF8047B704700BF5D
:1054F00080B586B000AFF860B9601346FB8000232A
:10550000FB75FA88FB68C3F83821FA88FB68C3F892
:105510003421FB68022283F81121FB88F8680021FE
:10552000BA68FFF717FFFB7D18461837BD4680BDE8
:1055300080B586B000AFF860B9601346FB800023E9
:10554000FB75FB88F8680021BA68FFF703FFFB7D55
:1055500018461837BD4680BD80B586B000AFF860EC
:10556000B9601346FB800023FB75FA88FB68C3F81B
:105570009023FA88FB68C3F88C23FB68032283F826
:105580001121FB88F8680021BA68FFF7A3FEFB7DB4
:1055900018461837BD4680BD80B586B000AFF860AC
:1055A000B9601346FB800023FB75FB88F868002177
:1055B000BA68FFF78FFEFB7D18461837BD4680BDE1
:1055C00080B584B000AF78600023FB737B68042251
:1055D00083F811217868002100220023FFF7BAFE2A
:1055E0007868FCF7A9FBFB7B18461037BD4680BDE9
:1055F00080B584B000AF78600023FB737B68052220
:1056000083F811217868002100220023FFF762FE51
:105610007868FCF791FBFB7B18461037BD4680BDD0
:1056200081F0004102E000BF83F0004330B54FEA53
:1056300041044FEA430594EA050F08BF90EA020FC0
:105640001FBF54EA000C55EA020C7FEA645C7FEA53
:10565000655C00F0E2804FEA5454D4EB5555B8BF76
:105660006D420CDD2C4480EA020281EA030382EAE7
:10567000000083EA010180EA020281EA0303362D79
:1056800088BF30BD11F0004F4FEA01314FF4801C4C
:105690004CEA113102D0404261EB410113F0004F5E
:1056A0004FEA03334CEA133302D0524263EB430315
:1056B00094EA050F00F0A780A4F10104D5F1200EB3
:1056C0000DDB02FA0EFC22FA05F2801841F100010E
:1056D00003FA0EF2801843FA05F359410EE0A5F1E2
:1056E00020050EF1200E012A03FA0EFC28BF4CF013
:1056F000020C43FA05F3C01851EBE37101F00045C9
:1057000007D54FF0000EDCF1000C7EEB00006EEBD5
:105710000101B1F5801F1BD3B1F5001F0CD349085F
:105720005FEA30004FEA3C0C04F101044FEA4452B6
:1057300012F5800F80F09A80BCF1004F08BF5FEA3D
:10574000500C50F1000041EB045141EA050130BD1D
:105750005FEA4C0C404141EB010111F4801FA4F1C0
:105760000104E9D191F0000F04BF01460020B1FA15
:1057700081F308BF2033A3F10B03B3F120020CDA4D
:105780000C3208DD02F1140CC2F10C0201FA0CF02B
:1057900021FA02F10CE002F11402D8BFC2F1200C90
:1057A00001FA02F120FA0CFCDCBF41EA0C01904046
:1057B000E41AA2BF01EB0451294330BD6FEA04048F
:1057C0001F3C1CDA0C340EDC04F11404C4F120027A
:1057D00020FA04F001FA02F340EA030021FA04F38C
:1057E00045EA030130BDC4F10C04C4F1200220FAE3
:1057F00002F001FA04F340EA0300294630BD21FA21
:1058000004F0294630BD94F0000F83F4801306BFE6
:1058100081F480110134013D4EE77FEA645C18BFDA
:105820007FEA655C29D094EA050F08BF90EA020F71
:1058300005D054EA000C04BF1946104630BD91EA69
:10584000030F1EBF0021002030BD5FEA545C05D16C
:105850004000494128BF41F0004130BD14F58004AB
:105860003CBF01F5801130BD01F0004545F0FE411F
:1058700041F470014FF0000030BD7FEA645C1ABF54
:10588000194610467FEA655C1CBF0B46024650EA8B
:10589000013406BF52EA033591EA030F41F40021B7
:1058A00030BD00BF90F0000F04BF0021704730B53D
:1058B0004FF4806404F132044FF000054FF0000112
:1058C00050E700BF90F0000F04BF0021704730B5D3
:1058D0004FF4806404F1320410F0004548BF4042A8
:1058E0004FF000013EE700BF42004FEAE2014FEAFD
:1058F00031014FEA02701FBF12F07F4393F07F4FD8
:1059000081F06051704792F0000F14BF93F07F4F09
:10591000704730B54FF4607401F0004521F000414C
:1059200020E700BF50EA010208BF704730B54FF0D2
:1059300000050AE050EA010208BF704730B511F0D7
:10594000004502D5404261EB41014FF4806404F10F
:1059500032045FEA915C3FF4DCAE4FF003025FEA91
:10596000DC0C18BF03325FEADC0C18BF033202EB19
:10597000DC02C2F1200300FA03FC20FA02F001FA73
:1059800003FE40EA0E0021FA02F11444C1E600BF12
:1059900070B54FF0FF0C4CF4E06C1CEA11541DBFC5
:1059A0001CEA135594EA0C0F95EA0C0F00F0DEF890
:1059B0002C4481EA030621EA4C5123EA4C5350EA75
:1059C000013518BF52EA033541F4801143F48013C6
:1059D00038D0A0FB02CE4FF00005E1FB02E506F057
:1059E0000042E0FB03E54FF00006E1FB03569CF0AC
:1059F000000F18BF4EF0010EA4F1FF04B6F5007FB2
:105A000064F5407404D25FEA4E0E6D4146EB060623
:105A100042EAC62141EA55514FEAC52040EA5E50AC
:105A20004FEACE2EB4F1FD0C88BFBCF5E06F1ED856
:105A3000BEF1004F08BF5FEA500E50F1000041EB8D
:105A4000045170BD06F0004646EA010140EA02003A
:105A500081EA0301B4EB5C04C2BFD4EB0C0541EA5C
:105A6000045170BD41F480114FF0000E013C00F371
:105A7000AB8014F1360FDEBF002001F0004170BD95
:105A8000C4F10004203C35DA0C341BDC04F11404AE
:105A9000C4F1200500FA05F320FA04F001FA05F23A
:105AA00040EA020001F0004221F0004110EBD37007
:105AB00021FA04F642EB06015EEA430E08BF20EA33
:105AC000D37070BDC4F10C04C4F1200500FA04F3D6
:105AD00020FA05F001FA04F240EA020001F0004168
