:020000040800F2
:1000000068080020810A0008DD0A0008DD0A0008EF
:10001000DD0A0008DD0A0008DD0A00080000000013
:10002000000000000000000000000000DD0A0008E1
:10003000DD0A000800000000DD0A0008DD0A0008F3
:10004000DD0A0008DD0A0008DD0A0008DD0A0008F4
:10005000DD0A0008DD0A0008DD0A0008DD0A0008E4
:10006000DD0A0008DD0A0008DD0A0008DD0A0008D4
:10007000DD0A0008DD0A0008DD0A0008DD0A0008C4
:10008000DD0A0008DD0A0008DD0A0008DD0A0008B4
:10009000DD0A0008DD0A0008DD0A0008DD0A0008A4
:1000A000DD0A0008DD0A0008DD0A0008DD0A000894
:1000B000DD0A0008DD0A0008DD0A0008DD0A000884
:1000C000DD0A0008DD0A0008DD0A0008DD0A000874
:1000D000DD0A0008DD0A0008DD0A0008DD0A000864
:1000E000DD0A0008DD0A0008DD0A0008DD0A000854
:1000F000DD0A0008DD0A0008DD0A0008DD0A000844
:10010000DD0A0008DD0A0008DD0A0008DD0A000833
:10011000DD0A0008DD0A0008DD0A0008DD0A000823
:10012000DD0A0008DD0A0008DD0A0008DD0A000813
:10013000DD0A0008DD0A0008DD0A0008DD0A000803
:10014000DD0A0008DD0A0008DD0A0008DD0A0008F3
:10015000DD0A0008DD0A0008DD0A0008DD0A0008E3
:10016000DD0A0008DD0A0008DD0A0008DD0A0008D3
:10017000DD0A0008DD0A0008DD0A0008DD0A0008C3
:10018000DD0A0008DD0A000880B586B000AF78609F
:1001900013460A46FA70BB7001237B6100F004FF2E
:1001A00000F02EFFBB78002B3ED0012B6DD100F06C
:1001B00031F9FB78002B22D0012B31D149483A216B
:1001C000002200F06FF94748312100F0AFF94548AF
:1001D000082100F0ABF9434800F0FCF941483A210E
:1001E000002200F05FF93F482D2100F09FF93D48C3
:1001F000082100F09BF93B4800F0ECF913E0394886
:100200003A21002200F04EF93648202100F08EF904
:100210003448472100F08AF9324800F0DBF902E067
:1002200000237B6133E032E000F05EF8FB78002BC6
:100230001DD0012B25D10823FB7307F10F031846AE
:100240003121012200F004FA0023FB7307F10F03B0
:1002500018462D21012200F0FBF90823FB7307F15A
:100260000F0318462D21012200F0F2F90CE047237C
:10027000FB7307F10F0318462021012200F0E8F973
:1002800002E000237B6102E001E000237B61FB7858
:10029000002B04D0012B05D104233B6104E0112382
:1002A0003B6101E001233B617B69002B0AD17B6844
:1002B00000221A60043300221A60043300221A60FC
:1002C00004330BE07B6801221A607B68FA781A71AC
:1002D0007B68BA785A717B683A699A60786818378F
:1002E000BD4680BD0054004080B58AB000AF0820F4
:1002F000012100F0D3FC4FF470433B62012387F8E7
:100300002430002387F82630032387F82530002384
:1003100087F8273007F120033A48194600F054FDCA
:100320004FF48050012100F0F5FC0120012100F084
:10033000B5FC1020012100F0B1FC33480521052255
:1003400000F0ECFD30480621052200F0E7FD2E48C4
:100350000721052200F0E2FD02233B770023BB7753
:100360000223FB7702237B772023BB6107F118036D
:100370002548194600F028FD8023BB6107F11803CA
:100380002148194600F020FD4023BB6107F1180306
:100390001D48194600F018FD1C4800F027FF0023F7
:1003A000BB8000233B8102237B810123BB814FF46F
:1003B0000073FB8138233B8200237B820723BB82AF
:1003C0004FF48273FB803B1D1048194600F048FF34
:1003D0000E48012100F088FF8023BB6101233B7799
:1003E0000023BB7702237B7707F1180308481946DF
:1003F00000F0EAFC0648802100F074FD2837BD4675
:1004000080BD00BF000C02400000024000300140EF
:100410000010024080B586B000AF4FF400100121FB
:1004200000F05AFC0220012100F038FC4FF4C073A8
:100430003B6102233B7502237B750123BB750123BE
:10044000FB7507F110031448194600F0BDFC124873
:100450000821042200F062FD0F480721042200F069
:100460005DFD0E4B3B600023BB804BF6FF73FB80B2
:1004700000233B8100237B814FF48043BB813B46BB
:100480000748194600F088FF0548012101F046F8A9
:100490001837BD4680BD00BF00040240A0860100A1
:1004A0000054004080B582B000AF786013460A4621
:1004B000FA70BB7000BF78684FF4003101F01AF990
:1004C0000346002BF7D17868012101F047F800BFFF
:1004D0007868134901F0DEF80346002BF8D0FA786B
:1004E000BB78786811461A4601F078F8BB78002B83
:1004F00008D100BF78680B4901F0CCF80346002B07
:10050000F8D00AE0BB78012B07D100BF7868064914
:1005100001F0C0F80346002BF8D00837BD4680BD77
:1005200001000300820007000200030080B582B0D2
:1005300000AF78600B46FB70FB787868194601F0D5
:100540008BF800BF7868044901F0A4F80346002B3B
:10055000F8D00837BD4680BD8000070080B584B064
:1005600000AF78607868012101F056F800BF786824
:10057000084901F08FF80346002BF8D0786801F0A5
:100580007BF80346FB73FB7B5BB218461037BD4616
:1005900080BD00BF4000030080B584B000AF78602C
:1005A0007868002101F038F800BF7868084901F048
:1005B00071F80346002BF8D0786801F05DF8034627
:1005C000FB73FB7B5BB218461037BD4680BD00BF96
:1005D0004000030080B582B000AF786078680121E8
:1005E00000F0DCFF00BF7868044901F053F80346CF
:1005F000002BF8D00837BD4680BD00BF840007003F
:1006000080B584B000AF0346FB7110483A21002248
:10061000FFF748FFFB790D481946FFF787FF0B48A6
:10062000FFF7D8FF09483A210122FFF73BFF0748AF
:10063000FFF7B2FF0346FB730448012100F0AEFF51
:10064000FB7B5BB218461037BD4680BD00540040AE
:1006500080B582B000AF786013460A46FA703B80DE
:100660003B88012B03D9FB7843F04003FB700F4814
:10067000802100F045FCFB78184600F019F80AE0EC
:100680007B681B78184600F013F83B88013B3B80E1
:100690007B6801337B603B88002BF1D103488021CC
:1006A00000F020FC0837BD4680BD00BF00100240AE
:1006B00080B582B000AF0346FB711F4B4FF48052F0
:1006C0001A600BE01C4B1B68591E1B4A1160002B63
:1006D00004D100F06BF80346DBB229E01748022191
:1006E00000F03EFE0346002BECD0FB799BB2134892
:1006F000194600F027FE104B4FF480521A600BE0B1
:100700000D4B1B68591E0C4A1160002B04D100F0E0
:100710004DF80346DBB20BE00848012100F020FE53
:100720000346002BECD0054800F0FEFD0346DBB28B
:1007300018460837BD4680BD00000020003001404B
:1007400080B582B000AF786013460A46FA703B80ED
:100750003B88012B04D9FB7863F03F03FB7003E077
:10076000FB7863F07F03FB700F48802100F0C8FB2B
:10077000FB781846FFF79CFF0CE00020FFF798FF7E
:1007800003461A467B681A703B88013B3B807B68B6
:1007900001337B603B88002BEFD10348802100F0C0
:1007A000A1FB0837BD4680BD0010024080B400AFF9
:1007B000FEE700BF80B58AB000AFF860384680E839
:1007C0000E003B68002B0CD1FB6800221A80FB68EE
:1007D00000225A80FB6800229A80FB6800229A71EE
:1007E000CAE000233B8400237B840023BB840123D5
:1007F00087F826303B79002B7BD0012B40F0B58069
:100800007B79002B51D0012B00D0AEE05C483A211F
:100810000022FFF747FE5A483221FFF787FE58486B
:10082000FFF7D8FE56483A210122FFF73BFE544815
:10083000FFF794FE03463B765148FFF78FFE0346D1
:100840007B764F48FFF78AFE0346BB764C48FFF79E
:1008500085FE0346FB764A48FFF780FE03463B775A
:100860004748FFF799FE03467B777B7E5BB21B020E
:100870009AB23B7EDBB213439BB23B84FB7E5BB2FE
:100880001B029AB2BB7EDBB213439BB27B847B7F9D
:100890005BB21B029AB23B7FDBB213439BB2BB84B9
:1008A0003748012100F07AFE22E007F118031846CC
:1008B00032210622FFF744FF7B7E5BB21B029AB215
:1008C0003B7EDBB213439BB23B84FB7E5BB21B02DD
:1008D0009AB2BB7EDBB213439BB27B847B7F5BB25D
:1008E0001B029AB23B7FDBB213439BB2BB8400BFB7
:1008F0003BE07B79002B15D0012B00D034E0292080
:10090000FFF77EFE03469BB23B842B20FFF778FE69
:1009100003469BB27B842D20FFF772FE03469BB2F9
:10092000BB8421E007F11703184629210122FFF7B4
:1009300007FFFB7D5BB29BB23B8407F117031846B0
:100940002B210122FFF7FCFEFB7D5BB29BB27B8477
:1009500007F1170318462D210122FFF7F1FEFB7D59
:100960005BB29BB2BB8400BF00BFFB681A4607F1B5
:10097000200303CB10605160F8682837BD4680BD66
:1009800000540040B0B58EB000AFF860384680E843
:100990000E0007F1300318463B460ECBFFF70AFF67
:1009A00097F83630002B18D1F9684FF000024FF05D
:1009B0000003C1E90023F9684FF000024FF0000383
:1009C000C1E90223F9684FF000024FF00003C1E9CA
:1009D0000423FB6800221A764BE03B8E1BB2BA68F8
:1009E00002FB03F3184601F00BF802460B461046D3
:1009F00019464FF00002214B01F092F902460B46D6
:100A0000C7E904237B8E1BB2BA6802FB03F31846C6
:100A100000F0F6FF02460B46104619464FF0000262
:100A2000164B01F07DF902460B46C7E90623BB8E43
:100A30001BB2BA6802FB03F3184600F0E1FF02465E
:100A40000B46104619464FF000020C4B01F068F9B6
:100A500002460B46C7E90823012387F82830FB68C4
:100A60001C4607F110050FCD0FC495E80F0084E870
:100A70000F00F8683837BD46B0BD00BF00408F405A
:100A800080B582B000AF104B7B60104B3B6007E03D
:100A90003B681A1D3A607A68111D796012681A6005
:100AA0003A680B4B9A42F3D30A480B494FF00002C5
:100AB0008842B8BF40F8042BFFF6FAAF00F012F8F6
:100AC0000837BD4680BD00BFF01E000800000020B2
:100AD00028000020280000206400002080B400AF1F
:100AE000FEE700BFB0B58CB000AF144C07F1200397
:100AF000184601210122FFF747FB234607F1200298
:100B000007CA83E807000E4C3A460C4B10460ECB42
:100B1000FFF738FF3D460FCD0FC495E80F0084E87E
:100B20000F00084C3A46054B10460ECBFFF742FE2D
:100B300023463A461068516803C3E4E728000020C2
:100B4000380000205800002080B489B000AF7860E1
:100B50000023BB6100237B610023FB6102233B6117
:100B60000023FB600223BB60484B9B6803F00C032F
:100B7000BB61BB69042B07D0082B09D0002B3FD1E8
:100B80007B68434A1A603FE07B68424A1A603BE058
:100B90003E4B5B6803F480039B0DFB603B4B5B6843
:100BA00003F03F03BB60FB68002B0DD0394ABB68E4
:100BB000B2FBF3F2354B596847F6C0730B409B0903
:100BC00003FB02F3FB610CE0314ABB68B2FBF3F2BA
:100BD0002E4B596847F6C0730B409B0903FB02F389
:100BE000FB612A4B5B6803F440331B0C01335B0051
:100BF0003B61FA693B69B2FBF3F27B681A6003E080
:100C00007B68234A1A6000BF204B9B6803F0F00307
:100C1000BB61BB691B09BB611F4ABB6913441B78DD
:100C2000DBB27B617B681A687B69DA407B685A605B
:100C3000164B9B6803F4E053BB61BB699B0ABB6125
:100C4000154ABB6913441B78DBB27B617B685A6829
:100C50007B69DA407B689A600C4B9B6803F46043C5
:100C6000BB61BB695B0BBB610B4ABB6913441B785F
:100C7000DBB27B617B685A687B69DA407B68DA604B
:100C80002437BD465DF8047B704700BF0038024042
:100C90000024F40000127A000400002080B483B025
:100CA00000AF78600B46FB70FB78002B06D0094B39
:100CB000084A116B7A680A431A6306E0054B054A35
:100CC000116B7A68D2430A401A630C37BD465DF84F
:100CD000047B70470038024080B483B000AF786076
:100CE0000B46FB70FB78002B06D0094B084A116CB1
:100CF0007A680A431A6406E0054B054A116C7A6863
:100D0000D2430A401A640C37BD465DF8047B704735
:100D10000038024080B483B000AF78600B46FB70AF
:100D2000FB78002B06D0094B084A516C7A680A43BD
:100D30005A6406E0054B054A516C7A68D2430A4072
:100D40005A640C37BD465DF8047B7047003802409A
:100D500080B483B000AF78600B46FB70FB78002B4B
:100D600006D0094B084A116A7A680A431A6206E0FB
:100D7000054B054A116A7A68D2430A401A620C3759
:100D8000BD465DF8047B70470038024080B483B0F4
:100D900000AF78600B46FB70FB78002B06D0094B48
:100DA000084A516A7A680A435A6206E0054B054AC6
:100DB000516A7A68D2430A405A620C37BD465DF8E0
:100DC000047B70470038024080B487B000AF786081
:100DD000396000237B6100233B610023FB6000231B
:100DE0007B6176E07B69012202FA03F33B613B6899
:100DF0001A683B691340FB60FA683B699A4265D107
:100E00007B681A687B695B00032101FA03F3DB430B
:100E10001A407B681A607B681A683B681B79194620
:100E20007B695B0001FA03F31A437B681A603B6835
:100E30001B79012B03D03B681B79022B2ED17B68D9
:100E40009A687B695B00032101FA03F3DB431A40D4
:100E50007B689A607B689A683B685B7919467B6916
:100E60005B0001FA03F31A437B689A607B685A6857
:100E70007B699BB2012101FA03F3DB431A407B68D3
:100E80005A607B685A683B689B7919467B699BB2BC
:100E900001FA03F39BB21A437B685A607B68DA68F5
:100EA0007B699BB25B00032101FA03F3DB431A4029
:100EB0007B68DA607B68DA683B68DB7919467B69B6
:100EC0005B0001FA03F31A437B68DA607B69013344
:100ED0007B617B690F2B85D91C37BD465DF8047B90
:100EE000704700BF80B483B000AF78600B467B8052
:100EF0007B687A881A830C37BD465DF8047B70479F
:100F000080B483B000AF78600B467B807B687A88C2
:100F10005A830C37BD465DF8047B704780B485B0BA
:100F200000AF786013460A467A807B700023FB602E
:100F30000023BB607A787B8803F007039B0002FAEA
:100F400003F3FB607B88DB089BB21A467B88DB08D7
:100F50009BB219467B68083153F821107B8803F057
:100F600007039B000F2000FA03F3DB4319407B6863
:100F7000083243F822107B88DB089BB21A467B6854
:100F8000083253F82220FB681343BB607B88DB08E0
:100F90009BB21A467B680832B96843F822101437AE
:100FA000BD465DF8047B704780B500AF114B114A18
:100FB000126842F001021A600E4B00229A600D4A3C
:100FC0000C4B1B6823F0847323F480331360094BAC
:100FD000094A5A60074B074A126822F480221A60B5
:100FE000044B0022DA6000F087F8044B4FF00062F7
:100FF0009A6080BD003802401030002400ED00E00F
:1010000080B487B000AF00233B6100237B610223E3
:10101000FB600023BB6002237B60324B9B6803F0C4
:101020000C033B613B69042B07D0082B09D0002B34
:101030003FD12D4B2D4A1A603FE02B4B2C4A1A60B2
:101040003BE0284B5B6803F480039B0DBB60254BA2
:101050005B6803F03F037B60BB68002B0DD0244A24
:101060007B68B2FBF3F21F4B596847F6C0730B4025
:101070009B0903FB02F37B610CE01C4A7B68B2FB1B
:10108000F3F2184B596847F6C0730B409B0903FBFA
:1010900002F37B61134B5B6803F440331B0C013399
:1010A0005B00FB607A69FB68B2FBF3F20E4B1A60DF
:1010B00003E00D4B0D4A1A6000BF0A4B9B6803F01A
:1010C000F0031B090B4AD35CDBB23B61064B1A6889
:1010D0003B69DA40044B1A601C37BD465DF8047B5F
:1010E000704700BF00380240140000200024F400C4
:1010F00000127A001800002080B483B000AF0023F3
:101100007B6000233B60354B344A126842F48032E6
:101110001A60324B1B6803F400333B607B68013379
:101120007B603B68002B03D17B68B3F5A06FF0D1E7
:101130002A4B1B6803F40033002B02D001233B60D1
:1011400001E000233B603B68012B42D1234B234A43
:10115000126C42F080521A64214B214A126842F408
:1011600080421A601D4B1D4A92689A601B4B1B4AB5
:10117000926842F400429A60184B184A926842F40E
:10118000A0529A60154B174A5A60144B134A1268C2
:1011900042F080721A6000BF104B1B6803F00073AE
:1011A000002BF9D0104B40F205621A600B4B0B4A32
:1011B000926822F003029A60084B084A926842F053
:1011C00002029A6000BF054B9B6803F00C03082BDA
:1011D000F9D10C37BD465DF8047B704700380240FA
:1011E0000070004008544007003C024080B582B0C7
:1011F00000AF78607A68174B9A420AD14FF480505A
:101200000121FFF7C3FD4FF480500021FFF7BEFD21
:101210001CE07A68104B9A420AD14FF480400121B9
:10122000FFF796FD4FF480400021FFF791FD0DE0A0
:101230007A680A4B9A4209D14FF400400121FFF726
:1012400087FD4FF400400021FFF782FD0837BD46BF
:1012500080BD00BF0030014000380040003C00402D
:1012600080B485B000AF786039600023FB817B6873
:101270001B88FB81FB8903F44153FB813B681A887F
:101280003B685B8813439AB23B689B8813439AB2CE
:101290003B68DB8813439AB23B681B8913439AB2BD
:1012A0003B685B8913439AB23B689B8913439AB2AC
:1012B0003B68DB8913439AB2FB891343FB817B684C
:1012C000FA891A807B689B8B9BB223F400639AB2E5
:1012D0007B689A833B681A8A7B681A821437BD46FA
:1012E0005DF8047B704700BF80B483B000AF7860C6
:1012F0000B46FB70FB78002B08D07B681B889BB2E9
:1013000043F040039AB27B681A8007E07B681B8831
:101310009BB223F040039AB27B681A800C37BD461B
:101320005DF8047B704700BF80B483B000AF786085
:101330007B689B899BB218460C37BD465DF8047BE1
:10134000704700BF80B483B000AF78600B467B80ED
:101350007B687A889A810C37BD465DF8047B7047BC
:1013600080B485B000AF78600B467B800023FB73B0
:101370007B681B899AB27B8813409BB2002B02D0FA
:101380000123FB7301E00023FB73FB7B184614373A
:10139000BD465DF8047B704780B58AB000AF7860C9
:1013A00039600023FB8400237B840423BB84574BD8
:1013B000FB617B689B88FB84FB8C23F03F03FB84F1
:1013C00007F10C031846FFF7BFFB7B69FB61FA6965
:1013D0004F4BA3FB02139B0C7B84FA8C7B8C134337
:1013E000FB847B68FA8C9A807B681B889BB223F015
:1013F00001039AB27B681A800023FB843B681A6859
:10140000444B9A4215D83B681B685B00FA69B2FBF3
:10141000F3F3BB84BB8C032B01D80423BB84FA8C6D
:10142000BB8C1343FB847B8C01339AB27B681A8498
:1014300040E03B68DA884BF6FF739A4209D13B687B
:101440001A6813465B001344FA69B2FBF3F3BB84DA
:101450000EE03B681A6813469B0013449A0013443D
:10146000FA69B2FBF3F3BB84BB8C43F48043BB84C7
:10147000BB8CC3F30B03002B03D1BB8C43F00103E4
:10148000BB84BA8CFB8C13439BB26FEA43436FEA75
:101490005343FB847B8C4FF4967202FB03F31E4A8A
:1014A00082FB03129211DB17D31A9BB201339AB25B
:1014B0007B681A847B68FA8C9A837B681B889BB252
:1014C00043F001039AB27B681A807B681B88FB8417
:1014D000FB8C23F4816323F00203FB843B689A882E
:1014E0003B685B8913439AB2FB8C1343FB847B6894
:1014F000FA8C1A803B689A893B681B8913439AB21D
:101500007B681A812837BD4680BD00BF00127A0073
:1015100083DE1B43A0860100D34D621080B483B0EC
:1015200000AF78600B46FB70FB78002B08D07B681F
:101530001B889BB243F001039AB27B681A8007E0D4
:101540007B681B889BB223F001039AB27B681A80E8
:101550000C37BD465DF8047B704700BF80B483B094
:1015600000AF78600B46FB70FB78002B08D07B68DF
:101570001B889BB243F480739AB27B681A8007E0A1
:101580007B681B889BB223F480739AB27B681A80B5
:101590000C37BD465DF8047B704700BF80B483B054
:1015A00000AF78600B46FB70FB78002B08D07B689F
:1015B0001B889BB243F400739AB27B681A8007E0E1
:1015C0007B681B889BB223F400739AB27B681A80F5
:1015D0000C37BD465DF8047B704700BF80B483B014
:1015E00000AF786013460A46FA70BB70BB78002BD8
:1015F00004D0FB7843F00103FB7003E0FB7823F099
:101600000103FB70FB789AB27B681A820C37BD46E7
:101610005DF8047B704700BF80B483B000AF786092
:101620000B46FB70FB78002B08D07B681B889BB2B5
:1016300043F480639AB27B681A8007E07B681B885A
:101640009BB223F480639AB27B681A800C37BD4644
:101650005DF8047B704700BF80B483B000AF786052
:101660000B46FB70FB789AB27B681A820C37BD463A
:101670005DF8047B704700BF80B483B000AF786032
:101680007B681B8A9BB2DBB218460C37BD465DF8FF
:10169000047B704780B487B000AF78603960002366
:1016A0003B610023FB600023BB600023FB757B686C
:1016B0009B8A9BB2FB607B681B8B9BB2BB60BB6849
:1016C0001B04BB60FA68BB68134323F07F433B6194
:1016D0003A693B681A403B689A4202D10123FB7584
:1016E00001E00023FB75FB7D18461C37BD465DF805
:1016F000047B704780B487B000AF78603960002306
:10170000FB7500233B610023FB607B68FB603B684B
:101710001B0F3B613B6823F07F433B603B69002B21
:1017200003D0FB681433FB6005E03B681B0C3B6097
:10173000FB681833FB60FB681A683B681340002B9A
:1017400002D00123FB7501E00023FB75FB7D1846E9
:101750001C37BD465DF8047B704700BF81F0004137
:1017600002E000BF83F0004330B54FEA41044FEA86
:10177000430594EA050F08BF90EA020F1FBF54EA21
:10178000000C55EA020C7FEA645C7FEA655C00F0BD
:10179000E2804FEA5454D4EB5555B8BF6D420CDD8E
:1017A0002C4480EA020281EA030382EA000083EA11
:1017B000010180EA020281EA0303362D88BF30BDB1
:1017C00011F0004F4FEA01314FF4801C4CEA113107
:1017D00002D0404261EB410113F0004F4FEA033366
:1017E0004CEA133302D0524263EB430394EA050FF1
:1017F00000F0A780A4F10104D5F1200E0DDB02FA60
:101800000EFC22FA05F2801841F1000103FA0EF2F3
:10181000801843FA05F359410EE0A5F120050EF1B9
:10182000200E012A03FA0EFC28BF4CF0020C43FAEA
:1018300005F3C01851EBE37101F0004507D54FF0F7
:10184000000EDCF1000C7EEB00006EEB0101B1F547
:10185000801F1BD3B1F5001F0CD349085FEA30008D
:101860004FEA3C0C04F101044FEA445212F5800F98
:1018700080F09A80BCF1004F08BF5FEA500C50F135
:10188000000041EB045141EA050130BD5FEA4C0C18
:10189000404141EB010111F4801FA4F10104E9D1A1
:1018A00091F0000F04BF01460020B1FA81F308BF98
:1018B0002033A3F10B03B3F120020CDA0C3208DD64
:1018C00002F1140CC2F10C0201FA0CF021FA02F13F
:1018D0000CE002F11402D8BFC2F1200C01FA02F1AF
:1018E00020FA0CFCDCBF41EA0C019040E41AA2BFD4
:1018F00001EB0451294330BD6FEA04041F3C1CDA9C
:101900000C340EDC04F11404C4F1200220FA04F0BB
:1019100001FA02F340EA030021FA04F345EA030165
:1019200030BDC4F10C04C4F1200220FA02F001FA27
:1019300004F340EA0300294630BD21FA04F02946A9
:1019400030BD94F0000F83F4801306BF81F4801142
:101950000134013D4EE77FEA645C18BF7FEA655CB5
:1019600029D094EA050F08BF90EA020F05D054EA87
:10197000000C04BF1946104630BD91EA030F1EBF8C
:101980000021002030BD5FEA545C05D14000494190
:1019900028BF41F0004130BD14F580043CBF01F583
:1019A000801130BD01F0004545F0FE4141F4700169
:1019B0004FF0000030BD7FEA645C1ABF1946104644
:1019C0007FEA655C1CBF0B46024650EA013406BF45
:1019D00052EA033591EA030F41F4002130BD00BF04
:1019E00090F0000F04BF0021704730B54FF48064C1
:1019F00004F132044FF000054FF0000150E700BF42
:101A000090F0000F04BF0021704730B54FF48064A0
:101A100004F1320410F0004548BF40424FF000018D
:101A20003EE700BF42004FEAE2014FEA31014FEAD0
:101A300002701FBF12F07F4393F07F4F81F060511F
:101A4000704792F0000F14BF93F07F4F704730B58E
:101A50004FF4607401F0004521F0004120E700BF21
:101A600050EA010208BF704730B54FF000050AE0A8
:101A700050EA010208BF704730B511F0004502D5A9
:101A8000404261EB41014FF4806404F132045FEAAB
:101A9000915C3FF4DCAE4FF003025FEADC0C18BF50
:101AA00003325FEADC0C18BF033202EBDC02C2F146
:101AB000200300FA03FC20FA02F001FA03FE40EAD8
:101AC0000E0021FA02F11444C1E600BF70B54FF0D8
:101AD000FF0C4CF4E06C1CEA11541DBF1CEA1355BA
:101AE00094EA0C0F95EA0C0F00F0DEF82C4481EA22
:101AF000030621EA4C5123EA4C5350EA013518BF42
:101B000052EA033541F4801143F4801338D0A0FB2E
:101B100002CE4FF00005E1FB02E506F00042E0FBDB
:101B200003E54FF00006E1FB03569CF0000F18BFE1
:101B30004EF0010EA4F1FF04B6F5007F64F5407489
:101B400004D25FEA4E0E6D4146EB060642EAC6211C
:101B500041EA55514FEAC52040EA5E504FEACE2E89
:101B6000B4F1FD0C88BFBCF5E06F1ED8BEF1004F8C
:101B700008BF5FEA500E50F1000041EB045170BD08
:101B800006F0004646EA010140EA020081EA03014C
:101B9000B4EB5C04C2BFD4EB0C0541EA045170BD48
:101BA00041F480114FF0000E013C00F3AB8014F1C2
:101BB000360FDEBF002001F0004170BDC4F100040B
:101BC000203C35DA0C341BDC04F11404C4F120058C
:101BD00000FA05F320FA04F001FA05F240EA0200E7
:101BE00001F0004221F0004110EBD37021FA04F61D
:101BF00042EB06015EEA430E08BF20EAD37070BDD7
:101C0000C4F10C04C4F1200500FA04F320FA05F035
:101C100001FA04F240EA020001F0004110EBD37037
:101C200041F100015EEA430E08BF20EAD37070BDA7
:101C3000C4F1200500FA05F24EEA020E20FA04F380
:101C400001FA05F243EA020321FA04F001F000412F
:101C500021FA04F220EA020000EBD3705EEA430EA0
:101C600008BF20EAD37070BD94F0000F0FD101F0CF
:101C70000046400041EB010111F4801F08BF013C08
:101C8000F7D041EA060195F0000F18BF704703F046
:101C90000046520043EB030313F4801F08BF013DCD
:101CA000F7D043EA0603704794EA0C0F0CEA135589
:101CB00018BF95EA0C0F0CD050EA410618BF52EA43
:101CC0004306D1D181EA030101F000414FF0000049
:101CD00070BD50EA410606BF1046194652EA430657
:101CE00019D094EA0C0F02D150EA013613D195EACB
:101CF0000C0F05D152EA03361CBF104619460AD113
:101D000081EA030101F0004141F0FE4141F470011C
:101D10004FF0000070BD41F0FE4141F4780170BD0C
:101D200070B54FF0FF0C4CF4E06C1CEA11541DBF71
:101D30001CEA135594EA0C0F95EA0C0F00F0A7F873
:101D4000A4EB050481EA030E52EA03354FEA0131A0
:101D500000F088804FEA03334FF0805545EA1313B3
:101D600043EA12634FEA022245EA111545EA10657B
:101D70004FEA00260EF000419D4208BF964244F112
:101D8000FD0404F5407402D25B084FEA3202B61A31
:101D900065EB03055B084FEA32024FF480104FF405
:101DA000002CB6EB020E75EB030E22BFB61A754679
:101DB00040EA0C005B084FEA3202B6EB020E75EB0C
:101DC000030E22BFB61A754640EA5C005B084FEA74
:101DD0003202B6EB020E75EB030E22BFB61A754641
:101DE00040EA9C005B084FEA3202B6EB020E75EB4C
:101DF000030E22BFB61A754640EADC0055EA060E0D
:101E000018D04FEA051545EA16754FEA06164FEA4F
:101E1000C30343EA52734FEAC2025FEA1C1CC0D1FB
:101E200011F4801F0BD141EA00014FF000004FF088
:101E3000004CB6E711F4801F04BF01430020B4F149
:101E4000FD0C88BFBCF5E06F3FF6AFAEB5EB030C01
:101E500004BFB6EB020C5FEA500C50F1000041EBFE
:101E6000045170BD0EF0004E4EEA113114EB5C04CB
:101E7000C2BFD4EB0C0541EA045170BD41F480119E
:101E80004FF0000E013C90E645EA060E8DE60CEAA6
:101E9000135594EA0C0F08BF95EA0C0F3FF43BAFC3
:101EA00094EA0C0F0AD150EA01347FF434AF95EA7A
:101EB0000C0F7FF425AF104619462CE795EA0C0F5E
:101EC00006D152EA03353FF4FDAE1046194622E72B
:101ED00050EA410618BF52EA43067FF4C5AE50EA05
:101EE00041047FF40DAF52EA43057FF4EBAE12E7F5
:101EF00000100000000000000102030401020304BE
:101F000006070809007A030A00000000000000002C
:081F10000102030406070809A1
:0400000508000000EF
:00000001FF
