:020000040800F2
:100000003008002029090008850900088509000832
:10001000850900088509000885090008000000001E
:10002000000000000000000000000000850900083A
:1000300085090008000000008509000885090008FE
:100040008509000885090008850900088509000858
:100050008509000885090008850900088509000848
:100060008509000885090008850900088509000838
:100070008509000885090008850900088509000828
:100080008509000885090008850900088509000818
:100090008509000885090008850900088509000808
:1000A00085090008850900088509000885090008F8
:1000B00085090008850900088509000885090008E8
:1000C00085090008850900088509000885090008D8
:1000D00085090008850900088509000885090008C8
:1000E00085090008850900088509000885090008B8
:1000F00085090008850900088509000885090008A8
:100100008509000885090008850900088509000897
:100110008509000885090008850900088509000887
:100120008509000885090008850900088509000877
:100130008509000885090008850900088509000867
:100140008509000885090008850900088509000857
:100150008509000885090008850900088509000847
:100160008509000885090008850900088509000837
:100170008509000885090008850900088509000827
:10018000850900088509000880B584B000AF786053
:1001900013460A46FA70BB700123FB6000F054FE60
:1001A00000F07EFEBB78002B3ED0012B6DD100F01D
:1001B0001DF9FB78002B22D0012B31D13F483A2189
:1001C000002200F05BF93D48312100F09BF93B48EB
:1001D000012100F097F9394800F0E8F937483A2151
:1001E000002200F04BF935482D2100F08BF93348FF
:1001F000082100F087F9314800F0D8F913E02F48C2
:100200003A21002200F03AF92C48202100F07AF936
:100210002A48472100F076F9284800F0C7F902E0A3
:100220000023FB6033E032E000F04AF8FB78002B5B
:100230001DD0012B25D10123FB7207F10B031846BA
:100240003121012200F0F0F90023FB7207F10B03CA
:1002500018462D21012200F0E7F90823FB7207F16F
:100260000B0318462D21012200F0DEF90CE0472394
:10027000FB7207F10B0318462021012200F0D4F98C
:1002800002E00023FB6002E001E00023FB60FB686A
:10029000002B05D17B6800221A6000225A6008E01A
:1002A0007B6801221A607B68FA781A717B68BA78D9
:1002B0005A7178681037BD4680BD00BF00540040B9
:1002C00080B58AB000AF0820012100F037FC4FF460
:1002D00070433B62012387F82430002387F82630DF
:1002E000032387F82530002387F8273007F1200300
:1002F0003A48194600F0B8FC4FF48050012100F054
:1003000059FC0120012100F019FC1020012100F00E
:1003100015FC33480521052200F050FD3048062128
:10032000052200F04BFD2E480721052200F046FD76
:1003300002233B770023BB770223FB7702237B77E3
:100340002023BB6107F118032548194600F08CFCF7
:100350008023BB6107F118032148194600F084FC93
:100360004023BB6107F118031D48194600F07CFCCF
:100370001C4800F08BFE0023BB8000233B8102233E
:100380007B810123BB814FF40073FB8138233B82C7
:1003900000237B820723BB824FF48273FB803B1DCB
:1003A0001048194600F0ACFE0E48012100F0ECFEAA
:1003B0008023BB6101233B770023BB7702237B773C
:1003C00007F118030848194600F04EFC0648802142
:1003D00000F0D8FC2837BD4680BD00BF000C0240AD
:1003E00000000240003001400010024080B586B09D
:1003F00000AF4FF40010012100F0BEFB02200121EC
:1004000000F09CFB4FF4C0733B6102233B75022359
:100410007B750123BB750123FB7507F1100314489D
:10042000194600F021FC12480821042200F0C6FC05
:100430000F480721042200F0C1FC0E4B3B60002353
:10044000BB804BF6FF73FB8000233B8100237B8145
:100450004FF48043BB813B460748194600F0ECFE51
:100460000548012100F0AAFF1837BD4680BD00BF36
:1004700000040240A08601000054004080B582B014
:1004800000AF786013460A46FA70BB7000BF786808
:100490004FF4003101F07EF80346002BF7D1786865
:1004A000012100F0ABFF00BF7868134901F042F86A
:1004B0000346002BF8D0FA78BB78786811461A46C4
:1004C00000F0DCFFBB78002B08D100BF78680B4937
:1004D00001F030F80346002BF8D00AE0BB78012B7E
:1004E00007D100BF7868064901F024F80346002BC5
:1004F000F8D00837BD4680BD010003008200070028
:100500000200030080B582B000AF78600B46FB703C
:10051000FB787868194600F0EFFF00BF786804495F
:1005200001F008F80346002BF8D00837BD4680BD1F
:100530008000070080B584B000AF78607868012142
:1005400000F0BAFF00BF7868084900F0F3FF0346E7
:10055000002BF8D0786800F0DFFF0346FB73FB7BCD
:100560005BB218461037BD4680BD00BF4000030097
:1005700080B584B000AF78607868002100F09CFFFF
:1005800000BF7868084900F0D5FF0346002BF8D07B
:10059000786800F0C1FF0346FB73FB7B5BB2184633
:1005A0001037BD4680BD00BF4000030080B582B05B
:1005B00000AF78607868012100F040FF00BF7868E4
:1005C000044900F0B7FF0346002BF8D00837BD46BA
:1005D00080BD00BF8400070080B584B000AF034633
:1005E000FB7110483A210022FFF748FFFB790D48C4
:1005F0001946FFF787FF0B48FFF7D8FF09483A2154
:100600000122FFF73BFF0748FFF7B2FF0346FB73EA
:100610000448012100F012FFFB7B18461037BD464D
:1006200080BD00BF0054004080B582B000AF78604C
:1006300013460A46FA703B803B88012B03D9FB78AE
:1006400043F04003FB700F48802100F0A9FBFB78CA
:10065000184600F019F80AE07B681B78184600F08D
:1006600013F83B88013B3B807B6801337B603B8810
:10067000002BF1D10348802100F084FB0837BD46F0
:1006800080BD00BF0010024080B582B000AF0346BD
:10069000FB711F4B4FF480521A600BE01C4B1B6820
:1006A000591E1B4A1160002B04D100F06BF8034661
:1006B000DBB229E01748022100F0A2FD0346002B1F
:1006C000ECD0FB799BB21348194600F08BFD104B20
:1006D0004FF480521A600BE00D4B1B68591E0C4AF8
:1006E0001160002B04D100F04DF80346DBB20BE0A3
:1006F0000848012100F084FD0346002BECD005489A
:1007000000F062FD0346DBB218460837BD4680BDE7
:10071000000000200030014080B582B000AF78605A
:1007200013460A46FA703B803B88012B04D9FB78BC
:1007300063F03F03FB7003E0FB7863F07F03FB7023
:100740000F48802100F02CFBFB781846FFF79CFF38
:100750000CE00020FFF798FF03461A467B681A70EA
:100760003B88013B3B807B6801337B603B88002BEF
:10077000EFD10348802100F005FB0837BD4680BD5E
:100780000010024080B400AFFEE700BF90B58BB010
:1007900000AFF8603B1D83E806007B68002B0CD19E
:1007A000FB6800221A60FB6800225A60FB68002286
:1007B0009A60FB680022DA60B0E00023BB6100238E
:1007C000FB6100233B6201237B623B7A002B6FD0ED
:1007D000012B40F09C807B7A002B4BD0012B00D06A
:1007E00095E050483A210022FFF748FE4D4832215B
:1007F000FFF788FE4B48FFF7D9FE4A483A2101220D
:10080000FFF73CFE4748FFF795FE03463B7445481B
:10081000FFF790FE03467B744248FFF78BFE0346CA
:10082000BB744048FFF786FE0346FB743D48FFF764
:1008300081FE03463B753B48FFF79AFE03467B75F6
:100840007B7C5BB21A023B7C5BB21343BB61FB7CDB
:100850005BB21A02BB7C5BB21343FB617B7D5BB274
:100860001A023B7D5BB213433B622E48012100F02C
:10087000E5FD1CE007F11003184632210622FFF7C0
:100880004BFF7B7C5BB21A023B7C5BB21343BB61C8
:10089000FB7C5BB21A02BB7C5BB21343FB617B7DCA
:1008A0005BB21A023B7D5BB213433B6200BF2EE09A
:1008B0007B7A002B12D0012B00D027E02920FFF7F4
:1008C0008BFE0346BB612B20FFF786FE0346FB61D0
:1008D0002D20FFF781FE03463B6217E007F1180366
:1008E000184629210122FFF717FF07F118030433E7
:1008F00018462B210122FFF70FFF07F118030833D9
:1009000018462D210122FFF707FF00BF00BFFB683B
:100910001C4607F118030FCB84E80F00F8682C374A
:10092000BD4690BD0054004080B582B000AF104B72
:100930007B60104B3B6007E03B681A1D3A607A68A9
:10094000111D796012681A603A680B4B9A42F3D312
:100950000A480B494FF000028842B8BF40F8042B08
:10096000FFF6FAAF00F012F80837BD4680BD00BFB1
:10097000FC150008000000202800002028000020AE
:100980002C00002080B400AFFEE700BF80B586B029
:1009900000AF07F11003184601210022FFF7F4FB16
:1009A0003B69002B01D1002314E03B46184607F1B8
:1009B000100393E80600FFF7E9FE3B68DAB2074B45
:1009C0001A707B68DAB2064B1A70BB68DAB2054B54
:1009D0001A70EAE718461837BD4680BD2800002087
:1009E0002A0000202900002080B489B000AF786080
:1009F0000023BB6100237B610023FB6102233B6179
:100A00000023FB600223BB60484B9B6803F00C0390
:100A1000BB61BB69042B07D0082B09D0002B3FD149
:100A20007B68434A1A603FE07B68424A1A603BE0B9
:100A30003E4B5B6803F480039B0DFB603B4B5B68A4
:100A400003F03F03BB60FB68002B0DD0394ABB6845
:100A5000B2FBF3F2354B596847F6C0730B409B0964
:100A600003FB02F3FB610CE0314ABB68B2FBF3F21B
:100A70002E4B596847F6C0730B409B0903FB02F3EA
:100A8000FB612A4B5B6803F440331B0C01335B00B2
:100A90003B61FA693B69B2FBF3F27B681A6003E0E1
:100AA0007B68234A1A6000BF204B9B6803F0F00369
:100AB000BB61BB691B09BB611F4ABB6913441B783F
:100AC000DBB27B617B681A687B69DA407B685A60BD
:100AD000164B9B6803F4E053BB61BB699B0ABB6187
:100AE000154ABB6913441B78DBB27B617B685A688B
:100AF0007B69DA407B689A600C4B9B6803F4604327
:100B0000BB61BB695B0BBB610B4ABB6913441B78C0
:100B1000DBB27B617B685A687B69DA407B68DA60AC
:100B20002437BD465DF8047B704700BF00380240A3
:100B30000024F40000127A000400002080B483B086
:100B400000AF78600B46FB70FB78002B06D0094B9A
:100B5000084A116B7A680A431A6306E0054B054A96
:100B6000116B7A68D2430A401A630C37BD465DF8B0
:100B7000047B70470038024080B483B000AF7860D7
:100B80000B46FB70FB78002B06D0094B084A116C12
:100B90007A680A431A6406E0054B054A116C7A68C4
:100BA000D2430A401A640C37BD465DF8047B704797
:100BB0000038024080B483B000AF78600B46FB7011
:100BC000FB78002B06D0094B084A516C7A680A431F
:100BD0005A6406E0054B054A516C7A68D2430A40D4
:100BE0005A640C37BD465DF8047B704700380240FC
:100BF00080B483B000AF78600B46FB70FB78002BAD
:100C000006D0094B084A116A7A680A431A6206E05C
:100C1000054B054A116A7A68D2430A401A620C37BA
:100C2000BD465DF8047B70470038024080B483B055
:100C300000AF78600B46FB70FB78002B06D0094BA9
:100C4000084A516A7A680A435A6206E0054B054A27
:100C5000516A7A68D2430A405A620C37BD465DF841
:100C6000047B70470038024080B487B000AF7860E2
:100C7000396000237B6100233B610023FB6000237C
:100C80007B6176E07B69012202FA03F33B613B68FA
:100C90001A683B691340FB60FA683B699A4265D168
:100CA0007B681A687B695B00032101FA03F3DB436D
:100CB0001A407B681A607B681A683B681B79194682
:100CC0007B695B0001FA03F31A437B681A603B6897
:100CD0001B79012B03D03B681B79022B2ED17B683B
:100CE0009A687B695B00032101FA03F3DB431A4036
:100CF0007B689A607B689A683B685B7919467B6978
:100D00005B0001FA03F31A437B689A607B685A68B8
:100D10007B699BB2012101FA03F3DB431A407B6834
:100D20005A607B685A683B689B7919467B699BB21D
:100D300001FA03F39BB21A437B685A607B68DA6856
:100D40007B699BB25B00032101FA03F3DB431A408A
:100D50007B68DA607B68DA683B68DB7919467B6917
:100D60005B0001FA03F31A437B68DA607B690133A5
:100D70007B617B690F2B85D91C37BD465DF8047BF1
:100D8000704700BF80B483B000AF78600B467B80B3
:100D90007B687A881A830C37BD465DF8047B704700
:100DA00080B483B000AF78600B467B807B687A8824
:100DB0005A830C37BD465DF8047B704780B485B01C
:100DC00000AF786013460A467A807B700023FB6090
:100DD0000023BB607A787B8803F007039B0002FA4C
:100DE00003F3FB607B88DB089BB21A467B88DB0839
:100DF0009BB219467B68083153F821107B8803F0B9
:100E000007039B000F2000FA03F3DB4319407B68C4
:100E1000083243F822107B88DB089BB21A467B68B5
:100E2000083253F82220FB681343BB607B88DB0841
:100E30009BB21A467B680832B96843F8221014370F
:100E4000BD465DF8047B704780B500AF114B114A79
:100E5000126842F001021A600E4B00229A600D4A9D
:100E60000C4B1B6823F0847323F480331360094B0D
:100E7000094A5A60074B074A126822F480221A6016
:100E8000044B0022DA6000F087F8044B4FF0006258
:100E90009A6080BD003802401030002400ED00E070
:100EA00080B487B000AF00233B6100237B61022345
:100EB000FB600023BB6002237B60324B9B6803F026
:100EC0000C033B613B69042B07D0082B09D0002B96
:100ED0003FD12D4B2D4A1A603FE02B4B2C4A1A6014
:100EE0003BE0284B5B6803F480039B0DBB60254B04
:100EF0005B6803F03F037B60BB68002B0DD0244A86
:100F00007B68B2FBF3F21F4B596847F6C0730B4086
:100F10009B0903FB02F37B610CE01C4A7B68B2FB7C
:100F2000F3F2184B596847F6C0730B409B0903FB5B
:100F300002F37B61134B5B6803F440331B0C0133FA
:100F40005B00FB607A69FB68B2FBF3F20E4B1A6040
:100F500003E00D4B0D4A1A6000BF0A4B9B6803F07B
:100F6000F0031B090B4AD35CDBB23B61064B1A68EA
:100F70003B69DA40044B1A601C37BD465DF8047BC0
:100F8000704700BF00380240140000200024F40025
:100F900000127A001800002080B483B000AF002354
:100FA0007B6000233B60354B344A126842F4803248
:100FB0001A60324B1B6803F400333B607B680133DB
:100FC0007B603B68002B03D17B68B3F5A06FF0D149
:100FD0002A4B1B6803F40033002B02D001233B6033
:100FE00001E000233B603B68012B42D1234B234AA5
:100FF000126C42F080521A64214B214A126842F46A
:1010000080421A601D4B1D4A92689A601B4B1B4A16
:10101000926842F400429A60184B184A926842F46F
:10102000A0529A60154B174A5A60144B134A126823
:1010300042F080721A6000BF104B1B6803F000730F
:10104000002BF9D0104B40F205621A600B4B0B4A93
:10105000926822F003029A60084B084A926842F0B4
:1010600002029A6000BF054B9B6803F00C03082B3B
:10107000F9D10C37BD465DF8047B7047003802405B
:101080000070004008544007003C024080B582B028
:1010900000AF78607A68174B9A420AD14FF48050BB
:1010A0000121FFF7C3FD4FF480500021FFF7BEFD83
:1010B0001CE07A68104B9A420AD14FF4804001211B
:1010C000FFF796FD4FF480400021FFF791FD0DE002
:1010D0007A680A4B9A4209D14FF400400121FFF788
:1010E00087FD4FF400400021FFF782FD0837BD4621
:1010F00080BD00BF0030014000380040003C00408F
:1011000080B485B000AF786039600023FB817B68D4
:101110001B88FB81FB8903F44153FB813B681A88E0
:101120003B685B8813439AB23B689B8813439AB22F
:101130003B68DB8813439AB23B681B8913439AB21E
:101140003B685B8913439AB23B689B8913439AB20D
:101150003B68DB8913439AB2FB891343FB817B68AD
:10116000FA891A807B689B8B9BB223F400639AB246
:101170007B689A833B681A8A7B681A821437BD465B
:101180005DF8047B704700BF80B483B000AF786027
:101190000B46FB70FB78002B08D07B681B889BB24A
:1011A00043F040039AB27B681A8007E07B681B8893
:1011B0009BB223F040039AB27B681A800C37BD467D
:1011C0005DF8047B704700BF80B483B000AF7860E7
:1011D0007B689B899BB218460C37BD465DF8047B43
:1011E000704700BF80B483B000AF78600B467B804F
:1011F0007B687A889A810C37BD465DF8047B70471E
:1012000080B485B000AF78600B467B800023FB7311
:101210007B681B899AB27B8813409BB2002B02D05B
:101220000123FB7301E00023FB73FB7B184614379B
:10123000BD465DF8047B704780B58AB000AF78602A
:1012400039600023FB8400237B840423BB84574B39
:10125000FB617B689B88FB84FB8C23F03F03FB8452
:1012600007F10C031846FFF7BFFB7B69FB61FA69C6
:101270004F4BA3FB02139B0C7B84FA8C7B8C134398
:10128000FB847B68FA8C9A807B681B889BB223F076
:1012900001039AB27B681A800023FB843B681A68BA
:1012A000444B9A4215D83B681B685B00FA69B2FB55
:1012B000F3F3BB84BB8C032B01D80423BB84FA8CCF
:1012C000BB8C1343FB847B8C01339AB27B681A84FA
:1012D00040E03B68DA884BF6FF739A4209D13B68DD
:1012E0001A6813465B001344FA69B2FBF3F3BB843C
:1012F0000EE03B681A6813469B0013449A0013449F
:10130000FA69B2FBF3F3BB84BB8C43F48043BB8428
:10131000BB8CC3F30B03002B03D1BB8C43F0010345
:10132000BB84BA8CFB8C13439BB26FEA43436FEAD6
:101330005343FB847B8C4FF4967202FB03F31E4AEB
:1013400082FB03129211DB17D31A9BB201339AB2BC
:101350007B681A847B68FA8C9A837B681B889BB2B3
:1013600043F001039AB27B681A807B681B88FB8478
:10137000FB8C23F4816323F00203FB843B689A888F
:101380003B685B8913439AB2FB8C1343FB847B68F5
:10139000FA8C1A803B689A893B681B8913439AB27E
:1013A0007B681A812837BD4680BD00BF00127A00D5
:1013B00083DE1B43A0860100D34D621080B483B04E
:1013C00000AF78600B46FB70FB78002B08D07B6881
:1013D0001B889BB243F001039AB27B681A8007E036
:1013E0007B681B889BB223F001039AB27B681A804A
:1013F0000C37BD465DF8047B704700BF80B483B0F6
:1014000000AF78600B46FB70FB78002B08D07B6840
:101410001B889BB243F480739AB27B681A8007E002
:101420007B681B889BB223F480739AB27B681A8016
:101430000C37BD465DF8047B704700BF80B483B0B5
:1014400000AF78600B46FB70FB78002B08D07B6800
:101450001B889BB243F400739AB27B681A8007E042
:101460007B681B889BB223F400739AB27B681A8056
:101470000C37BD465DF8047B704700BF80B483B075
:1014800000AF786013460A46FA70BB70BB78002B39
:1014900004D0FB7843F00103FB7003E0FB7823F0FA
:1014A0000103FB70FB789AB27B681A820C37BD4649
:1014B0005DF8047B704700BF80B483B000AF7860F4
:1014C0000B46FB70FB78002B08D07B681B889BB217
:1014D00043F480639AB27B681A8007E07B681B88BC
:1014E0009BB223F480639AB27B681A800C37BD46A6
:1014F0005DF8047B704700BF80B483B000AF7860B4
:101500000B46FB70FB789AB27B681A820C37BD469B
:101510005DF8047B704700BF80B483B000AF786093
:101520007B681B8A9BB2DBB218460C37BD465DF860
:10153000047B704780B487B000AF786039600023C7
:101540003B610023FB600023BB600023FB757B68CD
:101550009B8A9BB2FB607B681B8B9BB2BB60BB68AA
:101560001B04BB60FA68BB68134323F07F433B61F5
:101570003A693B681A403B689A4202D10123FB75E5
:1015800001E00023FB75FB7D18461C37BD465DF866
:10159000047B704780B487B000AF78603960002367
:1015A000FB7500233B610023FB607B68FB603B68AD
:1015B0001B0F3B613B6823F07F433B603B69002B83
:1015C00003D0FB681433FB6005E03B681B0C3B60F9
:1015D000FB681833FB60FB681A683B681340002BFC
:1015E00002D00123FB7501E00023FB75FB7D18464B
:0C15F0001C37BD465DF8047B704700BF4F
:1015FC0000100000000000000102030401020304BB
:10160C0006070809007A030A000000000000000029
:08161C0001020304060708099E
:0400000508000000EF
:00000001FF
